:020000040800F2
:100000003806002045010008D5040008D704000880
:10001000DB040008DF040008E3040008000000001F
:10002000000000000000000000000000E7040008DD
:10003000E904000800000000EB0400089317000822
:100040005F0100085F0100085F0100085F01000810
:100050005F0100085F0100085F0100085F01000800
:100060005F0100085F0100085F0100085F010008F0
:100070005F0100085F0100085F0100080D0500082E
:100080005F0100085F0100085F0100085F010008D0
:100090005F0100085F0100085F0100085F010008C0
:1000A0005F0100085F0100085F0100085F010008B0
:1000B000DF0600085F010008D70600085F0100089E
:1000C0005F0100085F0100085F0100085F01000890
:1000D0005F010008ED0400085F0100085F010008EF
:1000E0005F0100085F0100085F0100085F01000870
:1000F0005F0100085F0100085F0100085F01000860
:100100005F0100085F0100085F0100085F0100084F
:100110005F0100085F0100085F0100085F0100083F
:100120005F0100085F0100085F0100085F0100082F
:10013000DFF80CD004F0E8FB00480047A3030008F8
:10014000380600200648804706480047FEE7FEE7DD
:10015000FEE7FEE7FEE7FEE7FEE7FEE7FEE7FEE777
:1001600045020008310100080CB500200190009004
:100170006B48006840F480306949086000BF6848F7
:10018000006800F4003000900198401C0190009835
:1001900018B90198B0F5A06FF1D16148006810F46A
:1001A000003F02D00120009001E000200090009864
:1001B000012842D15B48006840F0100059490860AE
:1001C0000846006820F0030008600846006840F018
:1001D000020008605248406851494860084640683B
:1001E00048600846406840F48060486008464068BF
:1001F00020F47C1048600846406840F4E8104860ED
:100200000846006840F08070086000BF44480068FD
:1002100010F0007FFAD04248406820F003004049C7
:1002200048600846406840F00200486000BF3C4813
:10023000406800F00C000828F9D10CBD10B5FFF79C
:1002400093FF10BD10B53648006840F001003449F6
:10025000086008464068344908403149486008460B
:100260000068324908402E4908600846006820F4BA
:10027000802008600846406820F4FE0048604FF483
:100280001F008860FFF7DAFF4FF000602849086020
:1002900010BD10B5002100200022214B5B6803F047
:1002A0000C0121B1042906D0082928D107E0214BEF
:1002B000214C236027E01F4B1F4C236023E0184B89
:1002C0005B6803F47010164B5B6803F48032022302
:1002D00003EB904022B9194B4343174C23600DE0C8
:1002E0000F4B5B6813F4003F04D0144B4343124C94
:1002F000236003E00F4B43430F4C236003E00D4B9F
:100300000D4C236000BF00BF054B5B68C3F30313B4
:100310000B4CE15C084B1B68CB40074C236010BDC5
:1003200000100240002002400000FFF8FFFFF6FE30
:1003300008ED00E000127A000000002000093D00F6
:100340000400002010B500F028FF01F0D9F900F0FA
:1003500097FF01F081F901F06BF92821042001F0E9
:10036000FDFC01F09CFA01F0F5FD00F0FDFB01F051
:1003700038F800F0AEFE00F047FF434843490860FC
:1003800043488860434808613F4843490860404803
:100390008860404808610020404908608860086122
:1003A00010BDFFF7CFFF01F0BAFC012803D10021F7
:1003B000022000F0E1FF642001F029FA63E03848F0
:1003C000007800285FD00020354908703548007853
:1003D000401C3449087034480078401C3249087089
:1003E00008460078142808D1002008702F4801F032
:1003F00035FA2F492D4800F0AFF92A480078012836
:1004000041D000202749087029480378274A294904
:10041000294800F0DDF92648007818B1022001F0E3
:100420001EF803E00121022000F0A6FF2348007817
:10043000401C2249087022480078401C204908705E
:1004400020480078401C1F4908701C48007801288B
:1004500005D100201949087001201B49087018486F
:100460000078022805D1002015490870012017499D
:10047000087014480078032805D10020114908703D
:100480000120134908709AE700002041EC00002089
:10049000000040400000A0400C0100202C01002082
:1004A000140000201500002016000020300000205D
:1004B0003800002020000020E0000020170000206D
:1004C000180000201900002085000020870000206F
:1004D0008F000020704700BFFEE700BFFEE700BFAF
:1004E000FEE700BFFEE770477047704710B540F267
:1004F00025518C4803F0CCFE38B18A48001D008895
:10050000C4B2214688A004F021FA10BD2DE9F04FB5
:1005100085B04FF0000A00220221844802F097F8CB
:1005200001F054F9834682480068ABEB0000814932
:1005300008607F48C0F800B07F4A07CA02AB07C313
:100540004FF4003002F092F801287DD10024B2E08F
:100550007A48005D552878D17849601C085C53289A
:10056000F9D14FF000090AE004EB09007349085C77
:10057000504400F0FF0A09F101001FFA80F9B9F1B7
:100580000A0FF1DB6D4904F10A00085C5045E2D125
:100590000A46A11C525C694BE11C595C42EA0121EC
:1005A00008B204F076F80022654BCDE9000103F0B3
:1005B000F3FF07460022634B03F07CFF054604F07F
:1005C000CCF85D4908605D4A211D525C5B4B611DA2
:1005D000595C42EA012108B204F05BF807460022A8
:1005E000574B03F0D9FF05460022564B03F062FF3C
:1005F000CDE9000104F0B1F84F4948604F4AA11D10
:10060000525C4E4BE11D595C42EA012108B204F0F4
:1006100040F800224A4BCDE9000103F0BDFF074638
:100620000022484B03F046FF054604F096F8424985
:1006300088604048006804F027F806463E4A029960
:10064000106803F0BBFE01E042E032E007463146AD
:1006500003F0F0FE054604F03AF800B23A4948804B
:100660003448006804F010F80646334A039950688D
:1006700003F0A4FE0746314603F0DCFE054604F015
:1006800026F800B2304908802A48006803F0FCFFD1
:100690000646294A0499906803F090FE07463146C1
:1006A00003F0C8FE054604F012F800B2264988801F
:1006B00005E0601C84B20C2CFFF64AAF00BF4FF47B
:1006C000003001F0E6FF01220221184801F0BFFFCF
:1006D00005B0BDE8F08F10B501F06FF910BD10B591
:1006E0004FF08040008A10F0010F19D04FF6FE70D5
:1006F0004FF08041088215480068401C134908608B
:1007000013480078401C12490870084600780228F7
:1007100004D10020087001200E49087000F0DEFBB3
:1007200010BD000000380140256300005800024061
:100730006400002060000020E0000020BE010020D6
:100740000000E04000806640200000209000002073
:100750004000002014000020B0F9042040F6980367
:100760009A4211DAB0F906209A420DDA174A127845
:10077000521C164B1A701A4612784B2A1FD10022AF
:100780001A7001220A701AE0B0F9042040F69803AA
:100790009A4211DAB0F90620B2F5616F0CDD0B4A0E
:1007A0001278521C094B1A701A4612784B2A06D13D
:1007B00000221A700A7002E00022044B1A700A78B4
:1007C000012A00D1704700BFFCE70000680000204C
:1007D0002DE9FE4F06460D4614461F46B4F90000AB
:1007E000A0F6B8300C2190FBF1F9484603F043FF26
:1007F0008046316803F0E5FD0090B4F90200A0F6F0
:10080000B8300C2190FBF1F9484603F034FF8046E4
:10081000716803F0D6FD0190C3480099006803F0A9
:100820007BFDC1490860C149BF48006803F0BCFFB7
:1008300002D2BE48BC490860BD49BB48006803F00D
:10084000A9FF02D2BA48B8490860BA4A00991068AC
:1008500003F0BAFDB7494860B5F9020003F00BFF99
:100860008146B448006980F000484946404603F09C
:10087000ABFDB04948618868AB49096803F0A4FD45
:10088000AC49C860AC480199006803F045FDAA492D
:100890000860A649A848006803F086FF02D2A34872
:1008A000A5490860A249A448006803F073FF02D27A
:1008B0009F48A1490860A14A0199106803F084FD8E
:1008C0009E494860B5F9000003F0D5FE80469B487C
:1008D0000169404603F078FD984948618868964967
:1008E000096803F071FD9549C860B4F90600B0F5D8
:1008F0002F6F04DBB4F90600B0F5486F07DDA98857
:10090000E088A0F6B83001EB400000B2A880B5F94D
:10091000040003F0B0FE8246894903F055FD81468C
:10092000884903F051FD804687480168404603F03E
:10093000F3FC8549086085498348006803F034FF6B
:1009400002D282488049086081497F48006803F0EC
:1009500021FF02D27E487C4908607E4908687A49B6
:10096000096803F031FD7B494860B5F9040003F0E4
:1009700082FE804677480169404603F025FD7549AF
:100980004861B4F9040040F69801884206DA002074
:1009900069490860644908606B49086065484068B7
:1009A00080F000496348C168484603F007FD80466F
:1009B00060484169404603F0AFFC5E49C8615F4A48
:1009C000D168506803F0A8FC80465C484169404605
:1009D00003F0A2FC5949C8615E4AD168506803F02F
:1009E0009BFC80465B484169404603F095FC5949B1
:1009F000C861B4F9040040F6980188427BDD002FFD
:100A000079D0B4F90410A1F6980003F034FE8346BF
:100A10004848C169584603F0D1FC82464748C1693D
:100A2000504603F079FC81464A48C169484603F0C4
:100A300073FC804603F04BFE00B247490880B4F9CE
:100A40000410A1F6980003F016FE83463948C169E8
:100A5000584603F0B3FC82463848C169504603F05B
:100A6000ADFC81463B48C169484603F0A7FC80467F
:100A700003F02DFE00B239490880B4F90410A1F644
:100A8000980003F0F8FD83462A48C169584603F0F0
:100A900043FC82462948C169504603F08FFC8146D9
:100AA0002C48C169484603F037FC804603F00FFE2E
:100AB00000B22B490880B4F90410A1F6980003F0A5
:100AC000DAFD83461B48C169584603F025FC82467F
:100AD0001A48C169504603F01FFC81461D48C16990
:100AE000484603F06BFC804603F0F1FD00B21D495F
:100AF000088009E0FFE700201749088017490880AF
:100B000017490880174908801648B0F90030144882
:100B1000B0F900201148B0F900100F48B0F90000FA
:100B200000F0A2FDBDE8FE8F7000002000007A45B5
:100B300000007AC5EC000020740000200C010020A9
:100B40008DC1793D6F12033B780000200000A04169
:100B50000000A0C12C0100207C0000207E000020AD
:100B6000800000208200002010B500F0DDFA012492
:100B7000214610A003F0EAFE4FF4C87000F047FED3
:100B8000042421460BA003F0E1FE322000F03FFEDA
:100B90000624214607A003F0D9FE322000F037FEDC
:100BA0000924214603A003F0D1FE322000F02FFEDD
:100BB00010BD000025630000704770B5072001F0EC
:100BC0002DF8044614F0400F14D0602001F026F8F0
:100BD0000546212D09DA2A46FE49612001F056F822
:100BE0002946FC48FFF7E8FF03E0FF21E22000F080
:100BF000FDFF00BF14F0200F02D0012000F02FFCF9
:100C000014F0100F03D00021E12000F0EFFF214687
:100C1000272000F0EBFF70BD10B5172000F0FEFF9D
:100C200010BD70B50024AA222146641CEA48425433
:100C30002146641C425406222146641C4254002270
:100C40002146641C4254E54842782146641CE2482F
:100C50004254E24802782146641CDF484254E0488E
:100C600042782146641CDC484254DD480278214623
:100C7000601CC4B2D8484254DA4842782046611C0D
:100C8000CCB2D5490A54D74802782046611CCCB270
:100C9000D1490A54D44842782046611CCCB2CE498E
:100CA0000A54D14802782046611CCCB2CA490A5481
:100CB000201FC8700025002005E0C749095C2944B1
:100CC000CDB2411CC8B2A042F7DB2046611CCCB2B9
:100CD000C1490D542146C04800F0FAFF70BD70B5FF
:100CE0000024AA222146641CBB4842542146641CAD
:100CF000425403222146641C425400222146641CB3
:100D00004254BA4842792146641CB3484254B74819
:100D100002792146641CB0484254B448C279214645
:100D2000641CAD484254B14882792046611CCCB263
:100D3000A9490A54AD4842782046611CCCB2A64964
:100D40000A54AA4802782046611CCCB2A2490A542F
:100D5000A648C2782046611CCCB29F490A54A348D9
:100D600082782046611CCCB29B490A54201FC8706F
:100D70000025002005E09849095C2944CDB2411CBA
:100D8000C8B2A042F7DB2046611CCCB292490D5498
:100D90002146914800F09CFF70BD7CB50024AA223A
:100DA0002146641C8C4842542146641C4254012252
:100DB0002146641C425400222146641C42548C4942
:100DC00008688C4903F000FB064603F080FC00B283
:100DD00001909DF805202146641C7F4842549DF8EF
:100DE00004202146641C425481494868814903F02B
:100DF000EBFA064603F06BFC00B201909DF805206B
:100E00002146641C744842549DF804202046611C0D
:100E1000CCB271490A5476498868764903F0D4FA0D
:100E2000064603F054FC00B201909DF805202046D0
:100E3000611CCCB268490A549DF804202046611C0C
:100E4000CCB265490A546C48006800909DF80320B4
:100E50002046611CCCB260490A549DF8022020460D
:100E6000611CCCB25C490A549DF801202046611CEB
:100E7000CCB259490A549DF800202046611CCCB2DE
:100E800055490A545D48007830B9A0222046611CBB
:100E9000CCB251490A5409E058480078012805D1DC
:100EA000A1222046611CCCB24B490A54201F4A495A
:100EB000C8700025002005E04749095C2944CDB2EF
:100EC000411CC8B2A042F7DB2046611CCCB24249AB
:100ED0000D542146404800F0FBFE7CBD10B5FFF7E5
:100EE0006CFEFFF799FE044614F0100F00D110BD00
:100EF0004348007828B1002041490870FFF74DFFB2
:100F000010E04048007828B100203E490870FFF703
:100F1000E6FE07E03C48007820B100203A4908701E
:100F2000FFF77FFE00BFE2E770472DE9FE4F4FF06D
:100F3000000A3648008803F0BDFB0022344BCDE99F
:100F4000000103F029FB06464FF06632314B03F0F7
:100F5000B1FA04460022304B03F0ACFA804603F0AD
:100F6000FCFB02902349029803F02EFA044603F09A
:100F7000C7FB26490880AA2251460AF1010A1648F1
:100F8000425451460AF1010A4254052251460AF1DF
:100F9000010A4254002251460AF1010A42541B48F8
:100FA000427851460AF1010A0B4842541748027828
:100FB00051460AF1010A0848425414484278514601
:100FC0000AF1010A04484254104802785046411C74
:100FD00024E00000F80100208C0100207C000020AB
:100FE0007E000020800000208200002030000020D1
:100FF000E00000200000C8422C0000203800002043
:1010000085000020870000208F000020C400002001
:101010000000B04066660A400000264001F0FF0A6A
:101020001F490A541F4842785146481C00F0FF0AE5
:101030001B4842541B4802785046411C01F0FF0AED
:1010400017490A54174842785046411C01F0FF0ADC
:1010500013490A54134802785046411C01F0FF0A14
:101060000F490A54AAF10400C8704FF0000B002089
:1010700006E00B49095C594401F0FF0B411CC8B262
:101080005045F6DB5046411C01F0FF0A044901F8C7
:1010900000B05146024800F01BFEBDE8FE8F000084
:1010A0008C010020C400002008B54FF4E06000F07F
:1010B0005FFF1C208DF8000000208DF80100022049
:1010C0008DF8020001208DF80300684600F055FFFE
:1010D00008BD0EB50121084601F02BFE4FF08040FF
:1010E00002F008F8FFF7E0FF4FF4FA70ADF80400E3
:1010F0004720ADF800000020ADF80600ADF8020072
:1011000069464FF0804002F0C9F80121880702F0DB
:10111000E7FE01221146900702F037FC0121880703
:1011200002F018FC0EBD000000B585B0012144F2AC
:10113000040001F0F1FD4FF40070ADF8100018202C
:101140008DF8130003208DF8120004A9484801F01F
:101150002DFB4FF48060ADF8100004208DF81300D3
:1011600004A9434801F022FB4FF4E1300090002035
:10117000ADF80400ADF80600ADF80800ADF80C00BD
:101180000C20ADF80A0069463A4802F004FF01213C
:10119000384802F08CFF05B000BD08B54FF4E060A0
:1011A00000F0E6FE25208DF8000000208DF80100FB
:1011B0008DF8020001208DF80300684600F0DDFE86
:1011C00008BD70B504460D46E1B22A4802F0DCFFC6
:1011D00000BF2848008810F0800FFAD0204670BD6C
:1011E00008B54FF4E06000F0C3FE0F208DF800005A
:1011F00000208DF801008DF8020001208DF8030019
:10120000684600F0BAFE08BD00B58BB00121084663
:1012100001F075FDFFF7E4FF1648001D0090164829
:10122000019000200290172003900020049080205D
:101230000590002006900790202008904FF4405021
:10124000099000200A9069460C4801F0C9F9012272
:101250004021084802F05CFF01220221074801F00A
:10126000F6F90121054801F0E6F90BB000BD0000D8
:101270000008014000380140BE0100205800024033
:1012800000B587B00121042001F046FD0121802036
:1012900001F042FD0121080301F03EFDE020ADF820
:1012A000040001208DF8060018208DF8070001A920
:1012B0002E4801F07BFA0120ADF804008DF80600FD
:1012C00010208DF8070001A9294801F06FFA1020BD
:1012D000ADF8040001208DF8060010208DF80700FD
:1012E00001A9224801F062FA1021204801F009FB0F
:1012F0000020ADF808004FF48270ADF80A0000201D
:10130000ADF80C00ADF80E00ADF810004FF4007011
:10131000ADF812001020ADF814000020ADF8160052
:101320000720ADF8180002A9124801F083FD012141
:10133000104801F024FE07B000BD10B5044600BF00
:1013400002210C4801F09FFE0028F9D021460948EF
:1013500001F046FE00BF0121064801F094FE00287E
:10136000F9D0044801F03EFEC0B210BD00080140B3
:10137000001C01400030014070B505460C46012DAF
:1013800002D0022D16D10AE024B10221534801F007
:10139000B8FA03E00221514801F0B5FA1FE024B188
:1013A00004214E4801F0ADFA03E004214B4801F05E
:1013B000AAFA14E024B10221484801F0A2FA03E09D
:1013C0000221464801F09FFA24B10421434801F06C
:1013D00098FA03E00421414801F095FA00BF00BFEC
:1013E00070BD08B50121802001F096FC10208DF819
:1013F00003000620ADF8000003208DF802006946C6
:10140000364801F0D3F901210320FFF7B5FF64202E
:1014100000F0FDF900210120FFF7AEFF40F2DC50A3
:1014200000F0F5F900210220FFF7A6FF40F2DC50A2
:1014300000F0EDF901210320FFF79EFF40F2DC50A0
:1014400000F0E5F900210320FFF796FF40F6C410F5
:1014500000F0DDF901210320FFF78EFF08BD10B574
:1014600004461F480078D8B11E48007838B900F00B
:10147000ADF91D49086001201A4908702CE000F000
:10148000A5F919490968C831884225D901212046A2
:10149000FFF772FF002013490870114908701BE024
:1014A0001048007838B900F091F90F490860012020
:1014B0000C49087010E000F089F90B490968C8313F
:1014C000884209D900212046FFF756FF0020054930
:1014D000087001200249087010BD0000001C014086
:1014E00098000020990000209400002008B50121F8
:1014F000022001F01EFC0121112001F00DFC18203A
:101500008DF803004FF47070ADF8000003208DF8E3
:10151000020069466E4801F049F901216D4801F069
:1015200014FA08BDFEB5002700240025002600207F
:10153000ADF80600ADF8020049F64040ADF80400F1
:101540002420ADF800006946634801F0A7FE602042
:101550006249088000200881012048800846C78031
:101560005D4801F0D8FE01215B4802F0A5FB012097
:101570005A4948800846C480574801F00EFF0121AF
:10158000554802F0ABFB0120544948800846C5800D
:10159000514801F04FFF01214F4802F0B9FB0120F3
:1015A0004E4948800846C6804B4801F08EFF012115
:1015B000494802F0C7FB0121474802F0CBFA01215C
:1015C000454802F0C7F9FEBD70B505460C46B4F5B6
:1015D0007A6F04DD4FF47A604049C88009E0B4F5C1
:1015E000FA6F04DA4FF4FA603C49C88001E03B48E6
:1015F000C480012D06D0022D09D0032D0CD0042D5E
:1016000014D10EE03549344801F085FE00BF33495E
:10161000314801F0C2FE00BF30492F4801F00AFFF7
:1016200000BF2E492C4801F050FF00BF00BF70BD25
:1016300010B54FF4FA6421460120FFF7C5FF21469B
:101640000220FFF7C1FF21460320FFF7BDFF21461F
:101650000420FFF7B9FF10BD10B5FFF747FFFFF7F4
:1016600061FFFFF7E5FF10BD30B5B0F57A6F01DD22
:101670004FF47A60B1F57A6F01DD4FF47A61B2F51B
:101680007A6F01DD4FF47A62B3F57A6F01DD4FF4C2
:101690007A63B0F5FA6F01DA4FF4FA60B1F5FA6FD8
:1016A00001DA4FF4FA61B2F5FA6F01DA4FF4FA6237
:1016B000B3F5FA6F01DA4FF4FA63074D3435288039
:1016C0002D1D29802D1D2A802D1D2B8030BD000051
:1016D00000100140000C1A0000040040D601002058
:1016E00010B5002807DA0A07140E4D4A00F00F0360
:1016F0001B1FD45403E00A07130E4A4A135410BDAB
:101700002DE9F0410020484908604848006802F08F
:10171000D1FF06460022464B02F03EFF044603F08E
:1017200003F8414948604148006802F0C3FF06469B
:101730000022404B02F030FF044602F0F5FF3A4928
:1017400088600A20C8600846C0684FF47A71B1FB0F
:10175000F0F036490968B1FBF0F4B4F1807F00D3B2
:1017600011E024F07F40401E4FF0E02148610F213E
:101770004FF0FF30FFF7B4FF00204FF0E021886109
:101780000720086100BF0021481EFFF7A9FFBDE840
:10179000F081254800682449C96808442249086046
:1017A00070474FF0E02040694FF0E0218969401A0E
:1017B0001D494968B0FBF1F01B4A12684FF47A7377
:1017C000A2FB0332C01842F1000170474FF0E02045
:1017D00040694FF0E0218969401A13498968B0FBDC
:1017E000F1F0114909680844704770B50446FFF7E5
:1017F000D8FF021941F10000951E60F1000600BFFC
:10180000FFF7CFFF281A76EB0100F9D270BD10B5B3
:1018100004464FF47A7104FB01F0FFF7E6FF10BDB8
:1018200018ED00E000E400E0E801002000000020E6
:1018300080842E4100408F40E048808800B2E0491B
:101840008880DE48C08800B2C880DC48408800B28A
:101850000880DA48008800B248807047D8498988F3
:101860008180D749C988C180D54909880180D44978
:1018700049884180704708B54FF4E06000F078FB7C
:101880001E208DF8000000208DF8010001208DF849
:1018900002008DF80300684600F06FFB08BD00B53C
:1018A00087B00121042001F044FA0121212001F038
:1018B00033FA04208DF81B004FF47040ADF8180087
:1018C00003208DF81A0006A9BE4800F06FFF012121
:1018D000080301F03AF8BC4801F00CFCFFF7CBFF1D
:1018E0000020ADF81200ADF80E004FF6FF70ADF815
:1018F00010002420ADF80C0003A9B34801F0CEFC81
:101900000020ADF80000ADF80800ADF80200ADF819
:1019100006000120ADF804006946AB4801F051FF14
:101920000420ADF800000020ADF80800ADF802007A
:10193000ADF806000120ADF804006946A24801F0A8
:1019400040FF0820ADF800000020ADF80800ADF819
:101950000200ADF806000120ADF8040069469A487F
:1019600001F02FFF0C20ADF800000020ADF80800BA
:10197000ADF80200ADF806000120ADF8040069469C
:10198000914801F01EFF01218F4801F0E3FF012281
:1019900002218D4801F0F9FF012204218A4801F05B
:1019A000F4FF01220821884801F0EFFF01221021F5
:1019B000854801F0EAFF07B000BD10B5824810303D
:1019C000008810F0020F3ED07F49343108887E49EC
:1019D0001031098821F400717B4A10321180794955
:1019E0000831096811F4805F0AD078490880764987
:1019F0002031098841F00201734A2032118021E030
:101A00007349088070492031098821F002016E4A2B
:101A1000203211806E4909886C4A1288914207DB96
:101A20006B490988694A1288891A644A118009E059
:101A3000664909884FF6FF72511A654A12881144A7
:101A40005E4A118000BF60481030008810F0040F1B
:101A500036D05D49383108885A490831096811F48F
:101A6000005F0AD05B49088057492031098841F05E
:101A70002001554A2032118021E0574908805249FF
:101A80002031098821F020014F4A2032118052492B
:101A90000988504A1288914207DB4F4909884D4A0C
:101AA0001288891A454A518009E04A4909884FF647
:101AB000FF72511A484A12881144404A518000BFAF
:101AC00041481030008810F0080F36D03E493C31B4
:101AD00008883C490831096811F4804F0AD03F4911
:101AE000088039492031098841F40071364A203292
:101AF000118021E03A49088033492031098821F4D6
:101B00000071314A2032118035490988334A1288E0
:101B1000914207DB32490988304A1288891A274ADC
:101B2000918009E02D4909884FF6FF72511A2C4A1D
:101B300012881144214A918000BF23481030008848
:101B400010F0100F38D02048403004881D4808306D
:101B5000006810F4004F0AD0224804801A48203050
:101B6000008840F4005018492031088023E01E48C6
:101B7000048015482030008820F40050124920319C
:101B800008801948008817490988884207DB1648E9
:101B9000008814490988401A0849C88009E011489A
:101BA00000884FF6FF71081A0F4909880844034955
:101BB000C880FFF741FE00BF10BD0000AA00002052
:101BC000B200002000140140000800409A000020EC
:101BD0009C0000209E000020A0000020A200002009
:101BE000A4000020A6000020A800002070B5054633
:101BF0000C460121964800F086FE1021954800F021
:101C000082FE2846FFF799FB06462046FFF795FB24
:101C10001021904800F075FE304670BD70B5044646
:101C200001218B4800F06FFE10218A4800F06BFE06
:101C30002046FFF782FB0020FFF77FFB05461021BF
:101C4000844800F05EFE284670BD2DE9F04107464D
:101C50000D46164601217E4800F055FE10217D48B4
:101C600000F051FE3846FFF768FB8046002404E090
:101C7000285DFFF762FB601CC4B2B442F8DB1021A0
:101C8000744800F03EFE4046BDE8F0812DE9F04189
:101C900007460D46164601216D4800F034FE10211E
:101CA0006C4800F030FE3846FFF747FB80460024C2
:101CB00005E00020FFF741FB2855601CC4B2B44288
:101CC000F7DB1021634800F01CFE4046BDE8F081C0
:101CD00070B504460D4601215D4800F014FE052252
:101CE0005D493020FFF7B1FF2A462146A020FFF7CB
:101CF000ACFF0121564800F004FE70BD70B50446EB
:101D00000D460121524800F0FEFD2A462146A8203A
:101D1000FFF79BFF01214E4800F0F3FD70BD1CB59D
:101D200005224D493020FFF790FF0522694610201B
:101D3000FFF7ACFF002408E01DF804004649095DE8
:101D4000884200D003E0601CC4B2052CF4DB00BF65
:101D5000052C01D101201CBD0020FCE770B5044614
:101D60000D4601213A4800F0CEFD05223B492A20CC
:101D7000FFF76BFF052238493020FFF766FF01218E
:101D80002120FFF733FF01212220FFF72FFF05213C
:101D90002420FFF72BFF28212520FFF727FF0F2105
:101DA0002620FFF723FF012C08D120213120FFF747
:101DB0001DFF0F212020FFF719FF41E0022C08D161
:101DC00020213120FFF712FF0E212020FFF70EFF08
:101DD00036E0032C1AD1FF21E120FFF707FFFF2196
:101DE000E220FFF703FF0F212020FFF7FFFE502026
:101DF000FFF7A3FA7320FFF7A0FA01213C20FFF7B9
:101E0000F5FE06213D20FFF7F1FE19E00E2120200E
:101E1000FFF7ECFEFF21E120FFF7E8FEFF21E220C3
:101E2000FFF7E4FE5020FFF788FA7320FFF785FAEA
:101E300001213C20FFF7DAFE06213D20FFF7D6FE08
:101E40000121034800F05DFD6420FFF7E0FC70BD58
:101E5000001C014000080140BA000020BF00002023
:101E600008B50121084600F04AFF01214FF4017036
:101E700000F052FF0120ADF8000000208DF80300B3
:101E80006946374800F092FC08BD00B591B035486E
:101E900000F004FB34480690344807900020089076
:101EA0000120099000200A900B904FF480700C9054
:101EB00080000D9020200E9000020F9000201090C6
:101EC00006A9284800F08CFB0121264800F0B3FB4E
:101ED0000020019001208DF808008DF809004FF4D2
:101EE000602003900020049001208DF8140001A9C7
:101EF0001D484C3800F0D1F80523012200211A4872
:101F00004C3800F062F9012117484C3800F0FCF819
:101F1000012115484C3800F0ECF813484C3800F01B
:101F20000AF900BF10484C3800F00AF90028F9D12E
:101F30000D484C3800F00EF900BF0B484C3800F04B
:101F40000EF90028F9D1012107484C3800F011F9A9
:101F500011B000BD10B5FFF783FFFFF796FF10BD6E
:101F600000080140080002404C240140C400002049
:101F700031490143314A1160704770B50021002397
:101F80000F22C4780CB32D4C246804F4E064C4F52B
:101F9000E064210AC1F10403CA40447804FA03F161
:101FA0008478144021430901254C0678A155047812
:101FB00004F01F050124AC4005786D114FF0E026B8
:101FC00006EB8505C5F8004109E0047804F01F051B
:101FD0000124AC401B4D0678761145F8264070BDB3
:101FE000194A0A400243154B1B1F1A60704739B14A
:101FF000124A121D12680243104B1B1D1A6006E0A4
:102000000E4A121D126882430C4B1B1D1A6070474A
:10201000042808D14FF0E021096941F004014FF094
:10202000E022116107E04FF0E021096921F004018D
:102030004FF0E022116170470000FA050CED00E05E
:1020400000E400E080E100E080FFFF1F10B50446DF
:10205000FA48844208D10121401500F077FE0021A2
:10206000601500F073FE17E0F548844208D10121A5
:10207000001500F06BFE0021201500F067FE0BE05C
:10208000F048844208D10121C80300F05FFE00211E
:102090004FF4004000F05AFE10BD30B5024600205B
:1020A00000235068E84C20400D790C6844EA052470
:1020B000204350609068E54C2040D1E902542C4305
:1020C0004D7944EA450420439060D06A20F47000C2
:1020D0000C7C641EE4B2234340EA0350D06230BD5E
:1020E00000210160017141718160C16001210174B1
:1020F000704721B1826842F00102826003E0826889
:1021000022F001028260704721B1826842F480723D
:10211000826003E0826822F480728260704710B5AA
:102120000023CBB21AB144681C43446002E0446807
:102130009C43446010BD816841F008018160704794
:10214000014600208A6812F0080F01D0012000E04B
:1021500000207047816841F00401816070470146AA
:1021600000208A6812F0040F01D0012000E0002056
:10217000704721B1826842F4A002826003E0826865
:1021800022F4A00282607047014600208A6812F49F
:10219000800F01D0012000E00020704710B50A46F2
:1021A00000210023416821F46041531E41EA43317C
:1021B000416010BD21B1426842F40062426003E018
:1021C000426822F4006242607047F0B504460D4652
:1021D00000200021092D11DDE068A5F10A0606EBBB
:1021E0004607072606FA07F18843A5F10A0606EB1B
:1021F000460603FA06F10843E0600CE0206905EBAF
:102200004507072606FA07F1884305EB450603FA5A
:1022100006F108432061072A0FDA606B561E06EBB1
:1022200086071F2606FA07F18843561E06EB860628
:1022300005FA06F10843606322E00D2A0FDA206BED
:10224000D61F06EB86071F2606FA07F18843D61F1E
:1022500006EB860605FA06F10843206310E0E06A03
:10226000A2F10D0606EB86071F2606FA07F1884342
:10227000A2F10D0606EB860605FA06F10843E062B8
:10228000F0BD21B1826842F48012826003E082686E
:1022900022F48012826070470146C86C80B2704799
:1022A00066484C300068704721B1426842F4806251
:1022B000426003E0426822F480624260704721B1CC
:1022C000426842F48052426003E0426822F4805245
:1022D000426070470A460021816821F4E0411143C1
:1022E0008160704721B1826842F40042826003E05D
:1022F000826822F400428260704721B1826842F411
:102300000212826003E0826822F402128260704747
:10231000014600208A6812F4001F01D0012000E06D
:1023200000207047F0B50446154600200022002624
:10233000092911DDE068A1F10A0707EB470C07271F
:1023400007FA0CF29043A1F10A0707EB470703FADB
:1023500007F21043E0600CE0206901EB410C072715
:1023600007FA0CF2904301EB410703FA07F210431E
:102370002061A06BC0F30156EF1C06F1010CA7EB26
:102380000C0707EB870C1F2707FA0CF29043EF1C92
:1023900006F1010CA7EB0C0707EB870701FA07F220
:1023A0001043A063F0BD10B50A4600210023816BE5
:1023B00021F44011531E41EA0351816310BD08B559
:1023C000002300930090009B0B440093009B1A6035
:1023D00008BD08B5024600200090009201F12800D7
:1023E000009B184400900098006880B208BD0A461F
:1023F00000214168164B194011434160704741620A
:10240000826270470A460021416821F01F01114392
:102410004160704740B109490831096841F4000141
:10242000064A0832116007E004490831096821F4BE
:102430000001024A08321160704700000024014088
:1024400000280140003C0140FFFEF0FFFDF7F1FFD6
:10245000FFFD3FFF0246002013680B4201D0012020
:1024600000E000207047CA430260704770B5024622
:102470000020002300240B125568CEB205EA0604A2
:1024800015681D4202D00CB1012000E0002070BD93
:1024900000220A12D34303607047000001684FF620
:1024A000FE72114001600021016041608160C160E5
:1024B0008C49884208D18B490839496841F00F019D
:1024C000884A083A51608AE086491431884208D126
:1024D00084490839496841F0F001824A083A51605C
:1024E0007DE080492831884208D17E490839496811
:1024F00041F470617B4A083A516070E079493C319F
:10250000884208D177490839496841F47041754AD1
:10251000083A516063E073495031884208D17149EB
:102520000839496841F470216E4A083A516056E012
:102530006C496431884208D16A490839496841F4D4
:102540007001684A083A516049E06649783188422A
:1025500008D164490839496841F07061614A083A14
:1025600051603CE06049884206D1011F096841F092
:102570000F01021F116032E05B491431884208D11B
:102580005949091F096841F0F001574A121F1160AB
:1025900025E055492831884208D15349091F096867
:1025A00041F47061504A121F116018E04E493C31ED
:1025B000884208D14C49091F096841F470414A4AD0
:1025C000121F11600BE048495031884207D146493B
:1025D000091F096841F47021434A121F11607047B6
:1025E00010B50022026847F6F0739A430C6A8B68B4
:1025F00023430C6923434C6923438C692343CC69EF
:1026000023434C6A23438C6A23431A430260CB68FA
:1026100043600B6883604B68C36010BD002101609C
:1026200041608160C160016141618161C16101629C
:1026300041628162704721B1026842F0010202608A
:1026400004E002684FF6FE731A40026070471AB148
:1026500003680B43036002E003688B430360704729
:10266000416070470146486880B2704701460020CB
:10267000002211F0805F03D01B4B083B1A6802E078
:10268000184B083B1A680A4201D0012000E00020E4
:10269000704710F0805F03D01349091F086002E003
:1026A000104908394860704701460020002211F0A7
:1026B000805F03D00C4B083B1A6802E0094B083BD3
:1026C0001A680A4201D0012000E00020704710F093
:1026D000805F03D00449091F086002E001490839FE
:1026E00048607047080002400804024010B50446E4
:1026F000CA48844208D10121042000F027FB0021B0
:10270000042000F023FB46E0C548844208D10121A3
:10271000082000F01BFB0021082000F017FB3AE026
:10272000C048844208D10121102000F00FFB002195
:10273000102000F00BFB2EE0BB48844208D10121A1
:10274000202000F003FB0021202000F0FFFA22E00F
:10275000B648844208D10121402000F0F7FA002158
:10276000402000F0F3FA16E0B148844208D101217C
:10277000802000F0EBFA0021802000F0E7FA0AE068
:10278000AC48844207D10121801500F0DFFA002116
:10279000A01500F0DBFA10BD10B50121084600F0CD
:1027A000D5FA0021012000F0D1FA10BD2DE9F04149
:1027B000024600250026002000230024002791F86F
:1027C00003C00CF00F0591F803C01CF0100F03D0EC
:1027D00091F802C04CEA050591F800C0BCF1000F69
:1027E00031D0146800202BE04FF0010C0CFA00F3FC
:1027F000B1F800C00CEA03069E4220D183004FF0DE
:102800000F0C0CFA03F7BC4305FA03FC4CEA040472
:1028100091F803C0BCF1280F06D14FF0010C0CFA5F
:1028200000FCC2F814C00AE091F803C0BCF1480FE4
:1028300005D14FF0010C0CFA00FCC2F810C0401C8E
:102840000828D1D31460B1F800C0BCF1FF0F34DD0B
:10285000546800202EE000F1080C4FF0010808FA3F
:102860000CF3B1F800C00CEA03069E4221D18300AC
:102870004FF00F0C0CFA03F7BC4305FA03FC4CEACB
:10288000040491F803C0BCF1280F05D100F1080C35
:1028900008FA0CF8C2F8148091F803C0BCF1480F94
:1028A00007D100F1080C4FF0010808FA0CF8C2F843
:1028B0001080401C0828CED35460BDE8F0814FF64C
:1028C000FF710180022181700421C17070470246AE
:1028D000002093680B4201D0012000E000207047E7
:1028E0000146886880B2704702460020D3680B42D8
:1028F00001D0012000E0002070470146C86880B286
:10290000704701617047416170470AB1016100E0A1
:1029100041617047C16070474FF480320A43826161
:102920008161826182698269704702460020424B60
:1029300018684FF68073184040EA021008433E4B77
:10294000186070473D49C8617047F0B50A460023DA
:1029500000240021002500F00046B6F1004F02D10E
:10296000354EF16901E0344E7168C0F3034583B21E
:1029700000F44016B6F5401F08D121F070612E4ECC
:10298000766826F070662C4F7E6012E000F48016A8
:10299000B6F5801F06D1032606FA05F4A14341F0DF
:1029A000706106E0460D360103FA06F6B14341F0C8
:1029B000706122B1460D360103FA06F6314300F08C
:1029C0000046B6F1004F02D11B4EF16101E01A4EF4
:1029D0007160F0BD30B500228B071C0F0F2303FA86
:1029E00004F2154B08338C1053F824309343124CE7
:1029F00008348D1044F8253023468C1053F82430C9
:102A00008C07240F00FA04F423430B4C08348D1078
:102A100044F8253030BD0A4908607047000801407D
:102A2000000C01400010014000140140001801405A
:102A3000001C014000200140000001400000204235
:102A4000DC002042DD48006840F00100DB490860FE
:102A500008464068DA490840D84948600846006896
:102A6000D8490840D54908600846006820F480200D
:102A700008600846406820F4FE0048604FF41F00DC
:102A800088607047CD49096821F48031CB4A1160D4
:102A90001146096821F480211160B0F5803F03D010
:102AA000B0F5802F0ED106E0C449096841F48031A9
:102AB000C24A116007E0C149096841F4A021BF4A38
:102AC000116000E000BF00BF704710B50146002252
:102AD000002300204A11012A02D1B84C236806E0E5
:102AE000022A02D1B54C236A01E0B44C636A01F0BA
:102AF0001F02012494401C4201D0012000E000206C
:102B000010BD38B5002000900024002500BF312002
:102B1000FFF7DBFF05460098401C00900098B0F5D9
:102B2000A06F01D0002DF2D03120FFF7CEFF08B109
:102B3000012400E00024204638BD014600209F4AC1
:102B4000106820F0F80040EAC100106070479E490C
:102B50000860704702460020984B586820F47C10AB
:102B600042EA01031843954B58607047964908663E
:102B7000704701460020914A506820F00300084346
:102B8000506070478D48406800F00C007047014667
:102B900000208A4A506820F0F000084350607047D7
:102BA00001460020854A506820F4E06008435060E8
:102BB000704701460020814A506820F4605040EA86
:102BC000C1005060704729B17C4A527A02437B4B66
:102BD0005A7204E0794A527A8243784B5A727047AB
:102BE0007A490860704701460020744A506820F412
:102BF00040400843506070470021754A11706F4A89
:102C000082F82010012802D0042808D103E0012115
:102C10006F4A117004E005216D4A117000E000BF99
:102C200000BF70476B49086070476449096A0143F7
:102C3000624A11627047674944390860704730B58D
:102C400000210022002400235C4D6D6805F00C017A
:102C500021B1042905D0082923D105E05E4D056086
:102C600022E05D4D05601FE0544D6D6805F4701263
:102C7000524D6D6805F48034022505EB92421CB973
:102C8000564D554305600BE04C4D6D6815F4003F03
:102C900003D0524D5543056002E04F4D554305604A
:102CA00002E04D4D056000BF00BF444D6D6805F06A
:102CB000F00109094A4D6B5C0568DD4045603F4DF8
:102CC0006D6805F4E061090A454D6B5C4568DD40BF
:102CD00085603A4D6D6805F46051C90A404D6B5CE2
:102CE0004568DD40C560354D6D6805F44041890B90
:102CF0003C4D6B5CC568B5FBF3F5056130BD29B192
:102D00002E4A526902432D4B5A6104E02B4A526904
:102D100082432A4B5A61704729B1284A926902437B
:102D2000264B9A6104E0254A92698243234B9A61BB
:102D3000704729B1214AD2690243204BDA6104E08D
:102D40001E4AD26982431D4BDA61704729B11B4A82
:102D5000D2680243194BDA6004E0184AD268824311
:102D6000164BDA60704729B1144A12690243134BBB
:102D70001A6104E0114A12698243104B1A617047CC
:102D800014494039086070470F49C86470470B49BF
:102D9000C87170470948406A40F08070074948622E
:102DA000704701460020054A92680A4201D001207E
:102DB00000E000207047014988727047001002400F
:102DC0000000FFF8FFFFF6FE00004242D80042423A
:102DD000201002408004424200127A0000093D00A7
:102DE000C6000020D600002010B50446BE4884422C
:102DF00008D101218014FFF7A9FF0021A014FFF7DB
:102E0000A5FF16E0B948844208D101210014FFF75C
:102E1000AAFF00212014FFF7A6FF0AE0B44884426D
:102E200007D10121C013FFF79EFF0021E013FFF738
:102E30009AFF10BD10B50022028802F441520B889F
:102E40004C8823438C882343CC8823430C89234319
:102E50004C8923438C892343CC8923431A43028022
:102E6000838B4FF2FF74234083830B8A038210BD50
:102E70002DE9F04F85B005460C464FF000090227BA
:102E80004FF000084FF0010B0026B246A88B4FF21E
:102E900040010840A88302202884B5F81C90A0684F
:102EA000022801D100BF38E0A08810B94FF0010B13
:102EB00001E04FF0020B8D48854200D100E000BFD9
:102EC0006846FFF7BCFEDDF800A0E088B0F5007FA3
:102ED0000AD14FEA1A2000EB80004000A168B0FB45
:102EE000F1F0401D86B20BE04FEA4B10BAFBF0F058
:102EF00000EB80004000A168B0FBF1F0401D86B2FD
:102F00000A20B6FBF0F606F00108A6EB0800C0F3B5
:102F10004F074FF6FF7000EA0828022F01DBFF2F52
:102F200002DD02274FF00008E08840EA080038433D
:102F30002884A088A1890843618808432188084320
:102F400040F4006040EA0909A5F81C9005B0BDE80E
:102F5000F08F0021018041808180C1800181418109
:102F60008181C18107210182704700210180418058
:102F70008180C1800221816000218181704721B15F
:102F8000028842F04002028004E002884FF6BF73DC
:102F90001A400280704721B1828B42F480628283A2
:102FA00004E0828B4FF6FF331A408283704730B5BE
:102FB000002400230C110125A540ABB21AB185886D
:102FC0001D43858002E085889D43858030BD1AB110
:102FD00083880B43838002E083888B438380704720
:102FE00081817047014688897047A1F57E42FF3A8A
:102FF00004D0028842F48072028004E002884FF616
:10300000FF631A400280704721B1828842F00402B7
:10301000828004E082884FF6FB731A4082807047FA
:1030200002884FF2FF731A40028002880A4302802E
:103030007047018841F480510180704721B10288B6
:1030400042F40052028004E002884DF6FF731A40F9
:103050000280704702460020012901D0108B00E059
:10306000908A70470146088A7047B1F5804F04D1B5
:10307000028842F48042028004E002884BF6FF732B
:103080001A40028070470246002013890B4201D08B
:10309000012000E000207047CA4302817047F0B56C
:1030A0000246002000240023002501F00F0701261E
:1030B000BE40B4B20B1101269E40B3B2968806EA18
:1030C00003051689264202D00DB1012000E0002040
:1030D000F0BD10B5002201F00F040123A3409AB205
:1030E000D343038110BD0000003001400038004090
:1030F000003C004010B50446FE48844208D101213E
:10310000C014FFF723FE0021E014FFF71FFEC4E008
:10311000B4F1804F08D101210846FFF724FE0021B9
:103120000120FFF720FEB8E0F348844208D10121D6
:103130000220FFF718FE00210220FFF714FEACE08A
:10314000EE48844208D101210420FFF70CFE002143
:103150000420FFF708FEA0E0E948844208D10121DD
:103160000820FFF700FE00210820FFF7FCFD94E097
:10317000E448844208D101211020FFF7F4FD00212A
:103180001020FFF7F0FD88E0DF48844208D10121DC
:103190002020FFF7E8FD00212020FFF7E4FD7CE080
:1031A000DA48844208D101214014FFF7CFFD002105
:1031B0006014FFF7CBFD70E0D548844209D10121AE
:1031C000C804FFF7C3FD00214FF40020FFF7BEFD48
:1031D00063E0D048844209D101210805FFF7B6FD1C
:1031E00000214FF48010FFF7B1FD56E0CA48844239
:1031F00009D101214805FFF7A9FD00214FF4001076
:10320000FFF7A4FD49E0C548844208D101214020D0
:10321000FFF7A9FD00214020FFF7A5FD3DE0C048D4
:10322000844208D101218020FFF79DFD00218020EC
:10323000FFF799FD31E0BB48844208D10121801598
:10324000FFF791FD0021A015FFF78DFD25E0B648A1
:10325000844209D101210804FFF778FD00214FF4D1
:103260008030FFF773FD18E0B048844209D1012196
:103270004804FFF76BFD00214FF40030FFF766FDB7
:103280000BE0AB48844208D101218804FFF75EFDC2
:1032900000214FF48020FFF759FD10BD0022028865
:1032A000944B98420ED0994B98420BD0B0F1804F7E
:1032B00008D0914B984205D0904B984202D0904B49
:1032C000984204D14FF68F731A404B881A438D4BA6
:1032D000984207D08C4B984204D04FF6FF431A40D7
:1032E000CB881A4302808B8883850B880385814BAA
:1032F00098420BD0854B984208D08B4B984205D012
:103300008A4B984202D08A4B984201D10B7A0386AD
:1033100001238382704770B5002400220023058CAE
:103320004FF6FE7635400584028C8388048B4FF679
:103330008F752C40B51E2C400D882C43751E2A40DD
:103340000D892A434D882A436A4DA8420BD06F4D00
:10335000A84208D0744DA84205D0744DA84202D0AE
:10336000734DA84213D14FF6F7752A404D892A4371
:103370004FF6FB752A408D882A434FF6FF652B4098
:103380004FF6FF552B408D892B43CD892B438380EE
:103390000483CD888586028470BD70B50024002228
:1033A0000023058C4FF6EF7635400584028C838828
:1033B000048B48F6FF752C404FF6FF452C400D88D6
:1033C0004FF6FF7606EA05252C434FF6DF752A40B7
:1033D0000D8906EA05152A434D8806EA05152A4394
:1033E000444DA84202D0494DA8421DD14FF67F75E9
:1033F0002A404D894FF6FF7606EA05152A434FF617
:10340000BF752A408D8806EA05152A434FF6FF3519
:103410002B404FF2FF752B408D8906EA85052B4323
:10342000CD8906EA85052B4383800483CD880587F3
:10343000028470BD70B5002400220023058C4FF675
:10344000FF6635400584028C8388848B4FF68F7528
:103450002C404FF6FC752C400D882C434FF6FF5541
:103460002A400D894FF6FF7606EA05252A434D8846
:1034700006EA05252A431F4DA84202D0234DA84243
:103480001DD14FF2FF752A404D894FF6FF7606EAAF
:1034900005252A434FF6FF352A408D8806EA052583
:1034A0002A434EF6FF752B404DF6FF752B408D8954
:1034B00006EA05152B43CD8906EA05152B438380C3
:1034C0008483CD888587028470BD70B50022002377
:1034D0000024058C4EF6FF7635400584038C8488E5
:1034E000828B48F6FF752A404FF6FF452A400D882B
:1034F00020E00000002C01400004004000080040D3
:10350000000C004000100040001400400034014056
:10351000004C0140005001400054014000180040A0
:10352000001C0040002000400040014000440140D9
:10353000004801404FF6FF7606EA05252A434DF67E
:10354000FF752B400D8906EA05352B434D8806EAA9
:1035500005352B43FA4DA84202D0FA4DA84208D1B6
:103560004BF6FF752C408D894FF6FF7606EA8515E0
:103570002C4384808283CD88A0F84050038470BDA2
:10358000828B4FF2FF331A408283828B4FF6FF7398
:1035900003EA01231A4382837047F0B50C461546AF
:1035A000002200210026078C4EF6FF7C07EA0C075C
:1035B0000784828B018C4FF6FF7707EA043640F6CA
:1035C000FF473A404FF6FF7707EA05273A434FF6A1
:1035D000FF7707EA03373A43D94FB8420ED0D94FA5
:1035E000B8420BD0B0F1804F08D0D74FB84205D0C9
:1035F000D64FB84202D0D64FB84206D14DF6FF772B
:10360000394046F48057394305E047F6FF573940C3
:1036100044F48057394382830184F0BD828B4FF696
:10362000F3731A408283828B0A4382837047F0B51A
:103630000C461546002200210026078C4FF6FF6C31
:1036400007EA0C070784828B018C4FF6FF7707EAA5
:1036500004264FF60C773A404FF6FF7707EA031738
:103660002F433A43B64FB8420ED0B64FB8420BD0B4
:10367000B0F1804F08D0B44FB84205D0B34FB84234
:1036800002D0B34FB84206D14FF6FF57394046F447
:103690008077394305E04FF2FF57394044F4807793
:1036A000394382830184F0BD028B4FF2FF331A400D
:1036B0000283028B4FF6FF7303EA01231A4302834E
:1036C0007047F0B50C461546002200210026078CF5
:1036D0004FF6EF7C07EA0C070784028B018C4FF64C
:1036E000FF7707EA041640F6FF473A404FF6FF77A8
:1036F00007EA03373A434FF6FF7707EA05273A43CD
:103700008F4FB8420ED08F4FB8420BD0B0F1804FE0
:1037100008D08D4FB84205D08C4FB84202D08C4FA4
:10372000B84206D14FF6DF77394046F010073943EB
:1037300005E04FF65F77394044F0100739430283C4
:103740000184F0BD028B4FF6F3731A400283028BA3
:103750000A4302837047F0B50C461546002200214B
:10376000068C4FF6FE773E400684028B018C4FF6A6
:103770000C7632407E1C06EA03162E433243704E0E
:10378000B0420ED06F4EB0420BD0B0F1804F08D097
:103790006D4EB04205D06D4EB04202D06C4EB0427C
:1037A00006D14FF6FD76314044F00106314305E085
:1037B0004FF6F576314044F001063143028301842F
:1037C000F0BD70B505460C465D4885420ED05D489B
:1037D00085420BD0B5F1804F08D05B48854205D0BB
:1037E0005A48854202D05A48854200D100E000BFC5
:1037F000208850B92389A28861882846FFF7ABFF4B
:10380000E1882846FFF79EFF25E0208804280AD19A
:103810002389A28861882846FFF753FFE18828465C
:10382000FFF742FF17E0208808280AD12389A288E1
:1038300061882846FFF7FBFEE1882846FFF7EEFE89
:1038400009E02389A28861882846FFF7A6FEE1885F
:103850002846FFF795FE70BD2DE9F04105460C4660
:1038600000260127608808B9022600E00026A0880B
:10387000012801D1022700E001272088A0B923896F
:10388000A28861882846FFF766FFE1882846FFF78F
:1038900059FF23893A4631462846FFF712FFE1884F
:1038A0002846FFF701FF13E02389A2886188284694
:1038B000FFF707FFE1882846FFF7F6FE23893A461F
:1038C00031462846FFF747FFE1882846FFF73AFFD1
:1038D000BDE8F0810A884B881A438B881A43CB884D
:1038E0001A430B891A434B891A438B891A43A0F850
:1038F000442070474FF6FF71818000210180C18014
:103900004180017270470021018041808180C18027
:10391000018141818181C181704700210180418005
:10392000012181800021C180018170470021018037
:1039300041808180C1800181418181817047000087
:10394000002C014000340140000400400008004009
:10395000000C004021B1028842F00102028004E024
:1039600002884FF6FE731A400280704731B1B0F8FA
:10397000442042F40042A0F8442005E0B0F844207E
:10398000C2F30E02A0F8442070471AB183890B439A
:10399000838102E083898B438381704781827047F2
:1039A00041EA0203A0F8483070471AB183890B43FB
:1039B000838102E083898B438381704701894FF6BD
:1039C000F8721140018170470A46002101894FF6C3
:1039D0008F73194011430181704730B504460D467D
:1039E00029462046FFF7F0FF208940F0070020819C
:1039F00030BD2DE9F04104460D4616461F46602DA8
:103A000006D13B46012231462046FFF75AFE05E02B
:103A10003B46012231462046FFF79DFE29462046BF
:103A2000FFF7D2FF208940F007002081BDE8F08138
:103A300030B50C4600210189C9B24FF6FF7505EA81
:103A40000325154325432943018130BD2DE9F0416C
:103A500005460E4617469846002443463A463146E8
:103A60002846FFF7E5FF2C894FF6F870044044F034
:103A700007044FF68F70044044F070042C81BDE8B9
:103A8000F081F0B504460D4616461F463B463246C9
:103A900029462046FFF7CCFF208940F48040208152
:103AA000F0BD0185828270470A46002101884FF6E9
:103AB0008F731940114301807047F0B50C461546CD
:103AC0001E460021002200230189028B038C4FF641
:103AD000F877394021434FF6FC473A4040F201174E
:103AE0003A434FF6DD773B404FF6FF7707EA06177C
:103AF0002F433B43018102830384F0BD0A4600212A
:103B0000018B4FF68F7319401143018370470A46AA
:103B10000021018B48F6FF7319404FF6FF7303EA4B
:103B200002231943018370470A460021818B4FF617
:103B30008F7319401143818370470A460021818B9E
:103B400048F6FF7319404FF6FF7303EA0223194347
:103B50008183704721B1028842F08002028004E034
:103B600002884FF67F731A400280704721B1828825
:103B700042F00402828004E082884FF6FB731A4010
:103B80008280704721B1828842F00802828004E07E
:103B900082884FF6F7731A408280704721B182887D
:103BA00042F00102828004E082884FF6FE731A40E0
:103BB000828070470A460021018B4FF6F773194047
:103BC0001143018370470A460021018B4FF2FF73B6
:103BD00019404FF6FF7303EA02231943018370472C
:103BE0000A460021818B4FF6F773194011438183F8
:103BF00070470A460021818B4FF2FF7319404FF640
:103C0000FF7303EA02231943818370470A460021A8
:103C1000018B4FF6FB7319401143018370470A462D
:103C20000021018B4FF6FF3319404FF6FF7303EA73
:103C300002231943018370470A460021818B4FF606
:103C4000FB7319401143818370470A460021818B21
:103C50004FF6FF3319404FF6FF7303EA022319436F
:103C6000818370470A460021018B4FF67F7319400C
:103C70001143018370470A460021018BC1F30E01F5
:103C80004FF6FF7303EA02231943018370470A4684
:103C90000021818B4FF67F73194011438183704758
:103CA0000A460021818BC1F30E014FF6FF7303EA30
:103CB00002231943818370470A460021018C4FF685
:103CC000FD7319401143018470470A460021018C9D
:103CD0004FF6F77319401143018470470A460021DB
:103CE000018C4FF6DF7319404FF6FF7303EA02139E
:103CF0001943018470470A460021018C4FF67F73F7
:103D000019404FF6FF7303EA021319430184704709
:103D10000A460021018C4FF6FF5319404FF6FF73FE
:103D200003EA02231943018470470A460021018CEB
:103D30004FF2FF7319404FF6FF7303EA0223194352
:103D4000018470470A460021018C4DF6FF7319402B
:103D50004FF6FF7303EA023319430184704730B50D
:103D6000002301248C40A3B2048C9C430484048C63
:103D700002FA01F5ADB22C43048430BD30B5002306
:103D800004248C40A3B2048C9C430484048C02FA67
:103D900001F5ADB22C43048430BD70B5034600205C
:103DA00000241846183001258D40ACB21D8CA54367
:103DB0001D8409B1082909D100EB6100056825F0CF
:103DC000700505600568154305600EE00D1FC5F31D
:103DD0004E052844056825F4E045056005684FF662
:103DE000FF7606EA02263543056070BD21B10288E0
:103DF00042F00202028004E002884FF6FD731A408E
:103E00000280704721B1028842F00402028004E07F
:103E100002884FF6FB731A400280704721B18288F6
:103E200042F08002828004E082884FF67F731A405D
:103E30008280704702884FF6F7731A40028002882A
:103E40000A430280704782884FF68F731A4082803F
:103E500082880A438280704702894FF6F8731A40BD
:103E6000028102890A430281704702894FF67F73FB
:103E70001A40028102890A43028170478184704797
:103E800081857047818670470187704781877047B9
:103E9000A0F84010704702884FF6FF431A40028096
:103EA00002880A43028070470146888E70470146A7
:103EB000088F70470146888F70470146B1F840006F
:103EC00070470146888C70470146088D704702464E
:103ED0000020138A0B4201D0012000E0002070472F
:103EE000CA430282704730B50246002000230024F6
:103EF000158A05EA0103958905EA010413B10CB19D
:103F0000012000E0002030BDCA430282704700005B
:103F100010B50446FB48844209D101218803FEF70D
:103F200015FF00214FF48040FEF710FF32E0F64805
:103F3000844209D101214804FEF715FF00214FF406
:103F40000030FEF710FF25E0F048844209D101213E
:103F50008804FEF708FF00214FF48020FEF703FFDE
:103F600018E0EB48844209D10121C804FEF7FBFEAA
:103F700000214FF40020FEF7F6FE0BE0E5488442F6
:103F800008D101210805FEF7EEFE00214FF4801054
:103F9000FEF7E9FE10BD2DE9F04786B005460E4656
:103FA0000024A24600BFA1460027B08900B100BF8F
:103FB0002F462C8A4CF6FF700440F08804432C8274
:103FC000AC894EF6F3100440B088318908437189FA
:103FD00008430443AC81AC8A4FF6FF400440B089EB
:103FE0000443AC8201A8FEF72AFEC648874202D1EC
:103FF000DDF810A001E0DDF80CA0A88910F4004F56
:1040000008D00AEBCA0000EB0A1031684900B0FB87
:10401000F1F807E00AEBCA0000EB0A1031688900EA
:10402000B0FBF1F86420B8FBF0F004012009642132
:1040300001FB1089A88910F4004F08D0322000EB52
:10404000C900B0FBF1F000F00700044308E03220A3
:1040500000EB09106421B0FBF1F000F00F00044305
:104060002C8106B0BDE8F0874FF4165101600021A5
:104070008180C18001810C214181002181817047B3
:1040800010B502460020108A4FF2FF0318400B883B
:104090004C8823438C882343CC88234318431082C5
:1040A00010BD0021018041808180C180704721B115
:1040B000828942F40052828104E082894DF6FF73C6
:1040C0001A4082817047F0B503460024002600257F
:1040D0000020A1F510676A3F00D100BF1846C1F368
:1040E000421401F01F06012707FA06F5012C01D141
:1040F0000C3004E0022C01D1103000E014301AB171
:1041000007682F43076002E00768AF430760F0BD10
:104110001AB1838A0B43838202E0838A8B438382B2
:104120007047028A4FF6F0731A400282028A0A43ED
:104130000282704782894FF2FF731A40828182891E
:104140000A438281704721B1828942F00202828152
:1041500004E082894FF6FD731A4082817047028A1B
:104160004FF6DF731A400282028A0A4302827047C6
:1041700021B1028A42F48042028204E0028A4BF6B4
:10418000FF731A4002827047C1F3080282807047B1
:1041900001468888C0F308007047818941F0010119
:1041A00081817047028BD2B20283028B42EA0122E4
:1041B00002837047028B02F47F420283028B0A4320
:1041C0000283704721B1828A42F02002828204E099
:1041D000828A4FF6DF731A408282704721B1828A49
:1041E00042F01002828204E0828A4FF6EF731A4096
:1041F0008282704721B1828A42F00802828204E002
:10420000828A4FF6F7731A408282704721B1828901
:1042100042F40042828103E08289C2F30E0282816D
:10422000704721B1828A42F40062828204E0828A6D
:104230004FF2FF731A4082827047828A4FF6FB73F7
:104240001A408282828A0A438282704721B1828A1E
:1042500042F00202828204E0828A4FF6FD731A4025
:104260008282704702460020B1F5007F00D100BF76
:1042700013880B4201D0012000E00020704701F4B8
:104280000072B2F5007F00D100BFCA4302807047C0
:1042900070B502460024002300250020A1F5106619
:1042A0006A3E00D100BFC1F3421501F01F03012691
:1042B00006FA03F3012D02D19689334006E0022D60
:1042C00002D1168A334001E0968A33400C1201264F
:1042D00006FA04F41688344013B10CB1012000E052
:1042E000002070BD10B500220023A1F510646A3CC7
:1042F00000D100BF0A1201249440A3B2DC43048021
:1043000010BD00000038014000440040004800405B
:10431000004C004000500040F0B480EA0102D40F8D
:104320004200B2EB410F02D20246084611464A0053
:1043300042D0C30DDDB2C1F3C752AD1A202D35DA1C
:10434000C1F3160141F4000204B15242C5F1200646
:1043500002FA06F12A411044B3EBD05F23D0C4B176
:10436000012DA0EBC35009DCF0BC4FF0004202EA83
:10437000C35200F50000DBB200F039BA400000F192
:10438000807000EBC350A0F1807040EAD17049000A
:1043900009E0490841EAC071A0EBC35000F50000F4
:1043A000400800EBC350F0BC00F018BA6142012293
:1043B00002EB4101001BF6E7F0BC704781F00041C1
:1043C000AAE780F00040A7E780EA010210B502F0FA
:1043D0000043400026D04A0023D04FEA106101EB91
:1043E0001261C0F35600C2F3560240F4000042F4DA
:1043F0000002A0FB0220A1F17F014FEA004014045B
:1044000001D000F1010050EA124001D44000491EE1
:10441000C2B20C0604EBD010401C4008802A02D027
:1044200003E0002010BD20F00100002900DA002088
:10443000184310BD30B480EA010202F0004530F0AC
:10444000004221F0004015D0A0B1C0F3C753C2F321
:10445000C754C2F31601C0F31600E41A41F4000178
:1044600040F400027D34914201D3641C00E0490015
:10447000002C02DA30BC002070474FF4000000230B
:10448000914201D3891A034340084FEA4101F7D111
:1044900051B1914202D14FF0004105E002D24FF0FC
:1044A000010101E06FF0010103EBC450284430BC6E
:1044B00000F094B92DE9FE4F81EA030404F00044B2
:1044C00021F0004100944FF0000B23F0004350EA2C
:1044D000010402D052EA030404D10020014603B0D3
:1044E000BDE8F08FC3F30A54C1F30A552C44A4F27B
:1044F000F3340194A0FB0254C1F3130141F4801181
:10450000C3F3130343F4801301FB024400FB034E87
:10451000840A970A44EA815447EA8357A4FB076850
:1045200002958D0A05FB07854FEA932C04FB0C547A
:104530002705029D4FEA065847EA1637B5EB0805EE
:104540006EEB070C870E920E47EA811742EA831240
:10455000A7FB0201B6EB0B0164EB00042B0D43EA51
:104560000C335E1844EB1C50DA465146E7FB02015F
:10457000C5F313044FEA0B3343EA14534FEA0432F2
:10458000019C43EA0603A4F10C040294009CCDE9CB
:1045900000B400F066F9A2E72DE9F04D81EA0304CA
:1045A00004F0004B21F0004514464FF0000A23F0C0
:1045B000004150EA050220D054EA01021DD0C5F3A3
:1045C0000A570246C5F31303C1F31300C1F30A5699
:1045D00040F4801543F48013A7EB0608101BD64661
:1045E00008F2FD3873EB050002D308F1010801E081
:1045F00092185B41B8F1000F03DA00200146BDE8D4
:10460000F08D00204FF48011064684460EE0171B03
:1046100073EB050705D3121B63EB050306434CEA56
:10462000010C49084FEA300092185B4150EA01073B
:10463000EDD152EA030012D082EA040083EA0501B8
:10464000084303D100224FF0004308E0101BAB41A8
:1046500002D20122002302E06FF0010253101AEB94
:1046600006004CEB085110EB0A0041EB0B01BDE8D2
:10467000F04D00F0E9B8C10F80EAE0700844CA07C5
:104680009623002100F0B3B896230022114600F0D3
:10469000AEB80EB5C10F80EAE0700844CA07002129
:1046A00040F233438DE80E000A460B4600F0D9F87D
:1046B00003B000BD0EB540F2334102910021CDE9B7
:1046C00000110A460B4600F0CCF803B000BD00F024
:1046D000004220F00040C10DC0F3160040F400007D
:1046E0007F2901DA00207047962903DCC1F1960189
:1046F000C84001E096398840002AF4D04042704713
:1047000020F00040C10DC0F3160040F400007F29E6
:1047100001DA00207047962903DCC1F19601C840F8
:104720007047963988407047C1F30A5210B5C1F3FB
:10473000130140F2FF3341F480119A4201DA002064
:1047400010BD40F233439A42A2F2334203DC52429C
:1047500000F034F810BD904010BD01F0004330B4BB
:1047600021F0004150EA010206D00A0DA2F5607264
:10477000C1F31301002A02DC30BC00207047440F53
:1047800044EAC104C100E01830BC00EBC25000F0A4
:1047900025B80000002801DBC0F10040002901DB42
:1047A000C1F1004181427047002801DBC0F10040A7
:1047B000002901DBC1F1004188427047202A04DB57
:1047C000203A21FA02F00021704721FA02F3D0408A
:1047D000C2F1200291400843194670470029A8BF42
:1047E0007047401C490008BF20F00100704710B41A
:1047F000B0FA80FC00FA0CF050EA010404BF10BCCF
:10480000704749B1CCF1200421FA04F411FA0CF1FB
:1048100018BF012121430843A3EB0C01CB1D010666
:10482000000A002BBEBF002010BC704700EBC35035
:1048300010440029A4BF10BC7047401C490008BFA9
:1048400020F0010010BC704710B5002B08DA401CA6
:1048500041F1000192185B411A4301D120F001009F
:1048600010BD2DE9F04D92469B4611B1B1FA81F28F
:1048700002E0B0FA80F22032904600F057F8044689
:104880000F4640EA0A0041EA0B0153465A460843E4
:1048900003D120463946BDE8F08D114653EA0100A8
:1048A00015D0C8F140025046FFF788FF05460E4676
:1048B00050465946424600F039F8084301D00120DD
:1048C00000E00020054346EAE0762C4337430A988F
:1048D0004FEA4453A0EB08004FEAD4240A304FF0CB
:1048E000000244EA47544FEAD72502D5002001468A
:1048F000D1E7010510196941DDE908450019694151
:10490000BDE8F04DA0E70000064C074D06E0E0686A
:1049100040F0010394E8070098471034AC42F6D306
:10492000FBF70AFC5C4A00087C4A0008202A04DBEA
:10493000203A00FA02F1002070479140C2F12003B2
:1049400020FA03F319439040704700000FB4054B61
:1049500010B503A9044A029800F017F810BC5DF8DE
:1049600014FB0000C3110008DC00002002E008C8AE
:10497000121F08C1002AFAD170477047002001E0D9
:1049800001C1121F002AFBD170472DE9F84F99464B
:10499000924688460546002759E0252801D0514611
:1049A00023E0002315F8011F18462E2915D115F80C
:1049B000011F04232A290DD06FF02F022978A1F1BD
:1049C0003004092C09D800EB800002EB40000844B9
:1049D0006D1CF3E758F8040B6D1C2A7872B3632A38
:1049E00008D0732A10D0514610464A46904707F126
:1049F00001072BE018F8042B8DF8002000218DF81A
:104A000001106E46012103E058F8046B4FF0FF31AE
:104A10005A074FF0000401D409E0641C84420BDA09
:104A20008C42FADB325D002AF7D105E0641C8C422F
:104A3000FCDB305D0028F9D1274405E00AE016F8D8
:104A4000010B51464A469047641EF8D26D1C2878E7
:104A50000028A2D13846BDE8F88F00007C4A000843
:104A600000000020E00000006C4900085C4B0008DA
:104A7000E0000020580500007C49000800A24A041C
:104A800000000000000000000102030406070809FE
:104A90000000000000000000000000000000000016
:104AA0000000000000000000000000000000000006
:104AB00000000000000000000000000000000000F6
:104AC00000000000000000000000000000000000E6
:104AD00000000000000000000000000000000000D6
:104AE00000000000000000000000000000000000C6
:104AF00000000000000000000000000000000000B6
:104B000000000000000000000000000000000000A5
:104B10000000000001000000000000000000000094
:104B20000000000000000000000000000000000085
:104B3000000000000000E1E2E3E4E5E1E2E3E4E597
:104B40000000000000000102030401020304060744
:0C4B500008090204060800000000000034
:0400000508000131BD
:00000001FF
