:020000040800F2
:10000000A807002045010008D9040008DB04000807
:10001000DF040008E3040008E70400080000000013
:10002000000000000000000000000000EB040008D9
:10003000ED04000800000000EF0400089B1F00080A
:100040005F0100085F0100085F0100085F01000810
:100050005F0100085F0100085F0100085F01000800
:100060005F0100085F0100085F0100085F010008F0
:100070005F0100085F0100085F0100089D0900089A
:100080005F0100085F0100085F0100085F010008D0
:100090005F0100085F0100085F0100085F010008C0
:1000A0005F0100085F0100085F0100085F010008B0
:1000B000490C00085F010008410C00085F010008BE
:1000C0005F0100085F0100085F0100085F01000890
:1000D0005F010008F1040008F90700085F0100084B
:1000E0005F0100085F0100085F0100085F01000870
:1000F0005F0100085F0100085F0100085F01000860
:100100005F0100085F0100085F0100085F0100084F
:100110005F0100085F0100085F0100085F0100083F
:100120005F0100085F0100085F0100085F0100082F
:10013000DFF80CD005F04CF900480047A303000895
:10014000A80700200648804706480047FEE7FEE76C
:10015000FEE7FEE7FEE7FEE7FEE7FEE7FEE7FEE777
:1001600047020008310100080CB500200190009002
:100170006C48006840F480306A49086000BF6948F4
:10018000006800F4003000900198401C0190009835
:1001900018B90198B0F5A06FF1D16248006800F479
:1001A000003010B10120009001E000200090009884
:1001B000012843D15C48006840F010005A490860AB
:1001C0000846006820F0030008600846006840F018
:1001D0000200086053484068524948600846406839
:1001E00048600846406840F48060486008464068BF
:1001F00020F47C1048600846406840F4E8104860ED
:100200000846006840F08070086000BF45480068FC
:1002100000F000700028F9D04248406820F0030048
:10022000404948600846406840F00200486000BF0E
:100230003C48406800F00C000828F9D10CBD10B50E
:10024000FFF792FF10BD10B53648006840F001007E
:1002500034490860084640683449084031494860DC
:1002600008460068324908402E4908600846006880
:1002700020F4802008600846406820F4FE004860B2
:100280004FF41F008860FFF7DAFF4FF00060294944
:10029000086010BD10B5002100200022214B5B68D2
:1002A00003F00C0121B1042906D0082928D107E068
:1002B000214B224C236027E01F4B204C236023E07E
:1002C000184B5B6803F47010164B5B6803F48032C4
:1002D000022303EB904022B9194B4343174C236090
:1002E0000DE0104B5B6803F4003323B1144B434320
:1002F000124C236003E0104B4343104C236003E097
:100300000D4B0E4C236000BF00BF064B5B68C3F370
:1003100003130C4CE15C094B1B68CB40074C23607A
:1003200010BD000000100240002002400000FFF855
:10033000FFFFF6FE08ED00E000127A00000000204A
:1003400000093D000400002010B501F01AFB01F087
:10035000DBFD01F099FB01F083FD01F06DFD28212B
:10036000042002F0FFF801F09EFE02F0F7F900F021
:10037000D1FE01F03AFC01F09AFA02F0FDF90020FA
:10038000424908608860086141484249086000208D
:100390008860414808610020404908608860086121
:1003A00010BDFFF7D1FF02F0BEF8012803D10021F4
:1003B000022001F0E5FB642001F02DFE64E03848E6
:1003C0000078002860D03748007800285CD00020F2
:1003D0003349087034480078401C3349087033486A
:1003E0000078401C3149087008460078142809D16B
:1003F000002008702E4801F035FE2E492C4800F0F0
:1004000069FC41E00020284908702A480378284AFE
:1004100029492A4800F098FC2648007818B10220A3
:1004200001F021FC03E00121022001F0A9FB244896
:100430000078401C2249087022480078401C21495D
:10044000087021480078401C1F4908701C4800783B
:10045000012805D100201A49087001201B490870A5
:1004600018480078022805D100201649087001209C
:100470001749087014480078032805D10020124954
:10048000087001201349087099E700005C01002002
:10049000000060407C010020000020419C01002001
:1004A0001400002028000020390000203A0000201D
:1004B00030000020380000201C000020E000002058
:1004C0003B0000203C0000203D0000208500002073
:1004D000870000208F000020704700BFFEE700BFAC
:1004E000FEE700BFFEE700BFFEE7704770477047BA
:1004F0002DE9F04F85B04FF0000BD9460821FE489A
:1005000004F01EFC10B1FC4804F0B0FBFA4800886F
:1005100000F0200000287DD0F748001D0088C4B2FC
:10052000F648007838B9552C05D10120F3490870F8
:10053000F34804705CE1F148007801280DD1532C98
:100540000BD10220ED490870ED4844700820ED49B8
:1005500008700020EC4908704AE1E8480078022859
:100560001AD1E8480078002816DDE6480078401ED9
:10057000E4490870E4480078E3490978491CE24AF4
:100580001170801CDE490C54DE4800780028D1D15F
:100590000320DA4908702BE1D84800780328C9D134
:1005A0000020D6490870D8480078801CD4490C54E3
:1005B0004FF0000909E0D24810F80900584400F053
:1005C000FF0B09F1010000F0FF09B9F10A0FF2DB9E
:1005D000CB48807A58457DD101F0FCFC8246CB485F
:1005E0000068AAEB0000CA490860C848C0F800A02B
:1005F000C84A07CA02AB07C3C1498978C04AD27842
:1006000041EA022108B204F0ACFD0022C24BCDE960
:10061000000100E0EDE004F027FD07460022BF4B9B
:1006200004F0B0FC054604F000FEBA490860B44985
:100630000979B34A527941EA022108B204F091FDE6
:1006400007460022B44B04F00FFD05460022B34BD1
:1006500004F098FCCDE9000104F0E7FDAD494860E5
:10066000A7498979A64AD27941EA022108B204F061
:1006700078FD0022A84BCDE9000104F0F5FC074607
:100680000022A64B04F07EFC054604F0CEFDA149F5
:1006900088609F48006804F05FFD06469D4A116827
:1006A000029804F0F9FB0746314604F02DFC05469C
:1006B00004F075FD00B29A4948809548006804F03E
:1006C0004BFD0646934A5168039804F0E5FB074644
:1006D000314600E089E004F017FC054604F05FFDB8
:1006E00000B28F4908808A48006804F035FD06464C
:1006F000884A9168049804F0CFFB0746314604F01D
:1007000003FC054604F04BFD00B28549888085480E
:100710000088C8281DDA83480088401C8149088069
:100720007C4A5168804A506804F064FB7E49486006
:10073000784A11687C4A106804F05CFB7A490860CA
:10074000744A9168784A906804F054FB764988604E
:100750002FE074480088C8282BD17248008804F024
:10076000FBFC054670494868294604F0CDFB6E49FC
:1007700048606C48008804F0EFFC05466A49086848
:10078000294604F0C1FB684908606648008804F007
:10079000E3FC054664498868294604F0B5FB6249D4
:1007A00088600120614908705E480088401C5D49EE
:1007B00008805E480078D8B15B4A5168554A506855
:1007C00004F06AFB53494860574A1168514A10685F
:1007D00004F062FB4F490860534A91684D4A9068A3
:1007E00004F05AFB4B49886002E00020434908703E
:1007F00000BF05B0BDE8F08F10B508214C4804F0EB
:100800009FFA10B14A4804F031FA4948008800F0D4
:100810008000F0B146480C30008800F08000C0B184
:10082000444801780078401C424A10704248405CBD
:100830003F49091D088010460078404909788842E0
:1008400007D13B480C30008820F0800038490C313B
:1008500008803748008800F02000002878D034480D
:10086000001D0088C4B23648007838B9AA2C05D1DA
:10087000012033490870334804708DE03048007817
:10088000012807D1AF2C05D102202D4908702D4831
:10089000447081E02A480078022809D1002C07DD45
:1008A000102C05DC0320264908702648847073E06C
:1008B0002348007803280CD1322C0ADA042020497E
:1008C00008702048C4702048047000201F49087038
:1008D00062E01B480078042847D11B4800780028B4
:1008E00043DD19480078401E174908701748007802
:1008F00016490978491C2CE00038014060000020AE
:10090000F800002064000020650000205C0000204A
:1009100058000020E00000200000E0400080664019
:100920001C00002062000020EC00002028000020B5
:1009300000440040C6000020A8020020C70000209C
:10094000610000202A0100206600002067000020CE
:1009500023E0CE4A1170001DCD490C54CD480078DB
:10096000D0B90520CC49087016E0CB48007805289E
:100970000FD10020C8490870C4480078001DC44940
:100980000C54C2480078401DC1B2C14800F043FC7D
:1009900002E00020C049087000BF10BD2DE9F04FF3
:1009A00085B04FF0000A00220221BC4802F0B9FBDA
:1009B00001F010FB8346BA480068ABEB0000B94970
:1009C0000860B748C0F800B0B74A07CA02AB07C30F
:1009D0004FF4003002F0B4FB01287DD100241FE168
:1009E000B248005D552878D1B049601C085C532896
:1009F000F9D14FF000090AE004EB0900AB49085CAB
:100A0000504400F0FF0A09F101001FFA80F9B9F122
:100A10000A0FF1DBA54904F10A00085C5045E2D158
:100A20000A46A11C525CA14BE11C595C42EA01211F
:100A300008B204F096FB00229D4BCDE9000104F0C2
:100A400013FB074600229B4B04F09CFA054604F07A
:100A5000ECFB95490860954A211D525C934B611D42
:100A6000595C42EA012108B204F07BFB07460022F0
:100A70008F4B04F0F9FA054600228E4B04F082FAFF
:100A8000CDE9000104F0D1FB87494860874AA11DE8
:100A9000525C864BE11D595C42EA012108B204F028
:100AA00060FB0022824BCDE9000104F0DDFA07462D
:100AB0000022804B04F066FA054604F0B6FB7A4942
:100AC00088607848006804F047FB0646764A11685B
:100AD000029804F0E1F901E0AFE09FE007463146FB
:100AE00004F012FA054604F05AFB00B2724948803D
:100AF0006C48006804F030FB06466B4A5168039866
:100B000004F0CAF90746314604F0FEF9054604F040
:100B100046FB00B2684908806248006804F01CFB8C
:100B20000646614A9168049804F0B6F907463146D2
:100B300004F0EAF9054604F032FB00B25E49888011
:100B40005E480088C8281DDA5C480088401C5B4964
:100B50000880554A51685A4A506804F04BF9584980
:100B60004860514A1168564A106804F043F95449E4
:100B700008604D4A9168524A906804F03BF9504928
:100B800088602FE04D480088C8282BD14B4800884A
:100B900004F0E2FA05464A494868294604F0B4F9E7
:100BA000474948604548008804F0D6FA054644495C
:100BB0000868294604F0A8F9414908603F480088C0
:100BC00004F0CAFA05463E498868294604F09CF9B3
:100BD0003B49886001203B49087038480088401C28
:100BE0003649088037480078B8B1354A51682E4AEE
:100BF000506804F051F92C494860314A11682A4A7A
:100C0000106804F049F9284908602D4A9168264A7D
:100C1000906804F041F92449886005E0601C84B2C2
:100C20000C2CFFF6DDAE00BF4FF4003002F09CFA52
:100C300001220221194802F074FA05B0BDE8F08FD4
:100C400010B501F0BEFA10BD10B54FF08040008A1B
:100C500000F00100C8B14FF6FE704FF080410882ED
:100C600019480068401C1849086018480078401C62
:100C70001649087008460078022804D10020087040
:100C800001201349087000F02AFD10BD6700002004
:100C90002A01002066000020610000205800024068
:100CA0005C00002058000020E00000202E02002000
:100CB0000000E040008066401C000020680000202A
:100CC000EC00002028000020900000206A00002096
:100CD00014000020B0F90420B2F5966F12DAB0F9D2
:100CE0000620B2F5966F0DDA164A1278521C154B93
:100CF0001A701A4612784B2A1ED100221A7001224D
:100D00000A7019E0B0F90420B2F5966F11DAB0F963
:100D10000620B2F5E16F0CDD0A4A1278521C094B2D
:100D20001A701A4612784B2A06D100221A700A70DD
:100D300002E00022034B1A700A78012A00D17047A2
:100D400000BFFCE76B0000202DE9FE4F06460D4674
:100D500014461F46B4F90000A0F2DC50142190FBA9
:100D6000F1F9484604F0EFF98046316804F097F84D
:100D7000009070680190D7480099006804F03AF834
:100D8000D4490860D449D348006804F075FA02D207
:100D9000D148D0490860D149CE48006804F062FAD1
:100DA00002D2CE48CB490860CD4A0099106804F0C1
:100DB00079F8CB494860B5F9020004F0C4F98146DE
:100DC000C748006980F000484946404604F06AF888
:100DD000C34948618868BF49096804F063F8C0499D
:100DE000C860C0480199006804F004F8BD49086073
:100DF000B949BC48006804F03FFA02D2B648B94984
:100E00000860B649B748006804F02CFA02D2B3482B
:100E1000B4490860B44A0199106804F043F8B24933
:100E20004860B5F9000004F08EF98046AE480169CB
:100E3000404604F037F8AC4948618868A949096818
:100E400004F030F8A849C860B4F90600B0F5AF6FF7
:100E500004DBB4F90600B0F5C86F07DDA988E088A7
:100E6000A0F2DC5001EB400000B2A880B5F904000C
:100E700004F069F982469D4904F014F881469C49C2
:100E800004F010F880469B480168404603F0B2FF2A
:100E90009849086098499748006804F0EDF902D233
:100EA00095489449086095499248006804F0DAF939
:100EB00002D292488F490860914908688D490968B3
:100EC00003F0F0FF8E494860B5F9040004F03BF9E7
:100ED00080468B480169404603F0E4FF8849486139
:100EE000B4F90400B0F5966F06DA00207D49086079
:100EF000784908607F4908607948406880F0004977
:100F00007748C168484603F0C7FF80467448416986
:100F1000404603F06FFF7249C861734AD168506858
:100F200003F068FF804670484169404603F062FF65
:100F30006D49C861724AD168506803F05BFF804612
:100F40006F484169404603F055FF6D49C861B4F9E7
:100F50000400B0F5966F7DDD002F7BD0B4F904104E
:100F6000A1F1C80004F0EFF883465D48C169584616
:100F700003F092FF82465C48C169504603F03AFF95
:100F800081465F48C169484603F034FF804604F05B
:100F900006F900B25B490880B4F90410A1F1C80059
:100FA00004F0D1F883464E48C169584603F074FFF7
:100FB00082464D48C169504603F06EFF8146504855
:100FC000C169484603F068FF804604F0E8F800B2C3
:100FD0004D490880B4F90410A1F1C80004F0B3F839
:100FE00083463F48C169584603F004FF82463E48A5
:100FF000C169504603F050FF81464148C1694846E7
:1010000003F0F8FE804604F0CAF800B23F490880B9
:10101000B4F90410A1F1C80004F095F883463048F3
:10102000C169584603F0E6FE82462F48C169504622
:1010300003F0E0FE81463248C169484603F02CFFC8
:10104000804604F0ACF800B2314908802D48B0F970
:10105000000000E025E0B0F5966F03DA40F24C4066
:10106000284908802848B0F90000B0F5966F03DAE7
:1010700040F24C40244908802448B0F90000B0F503
:10108000966F03DA40F24C40204908802048B0F9BE
:101090000000B0F5966F0DDA40F24C401C49088014
:1010A00008E0002017490880174908801749088080
:1010B000174908801648B0F900301448B0F90020EC
:1010C0001148B0F900100F48B0F9000000F0D0FE50
:1010D000BDE8FE8F700000200000FA440000FAC452
:1010E0005C010020740000207C0100208DC1793D4E
:1010F0006F12033B780000200000A0410000A0C157
:101100009C0100207C0000207E0000208000002048
:101110008200002010B500F0F5FB0124214610A04C
:1011200004F078F94FF4C87000F075FF04242146EC
:101130000BA004F06FF9322000F06DFF0624214669
:1011400007A004F067F9322000F065FF092421466A
:1011500003A004F05FF9322000F05DFF10BD000035
:101160002563000031B5AA20F74908704870F020C7
:1011700088700320C870BA2008719DF8010048717A
:101180009DF8000088710024002005E0EE49095C0C
:101190002144CCB2411CC8B20728F7DBEA48C4712D
:1011A000EA49086804F014F8E7490872E7498868D2
:1011B00004F00EF8E4494872E449086904F008F8BC
:1011C000E1498872E249086804F002F8DE49C87211
:1011D000DF49886803F0FCFFDB490873DC490869D4
:1011E00003F0F6FFD8494873DA49086803F0F0FFC6
:1011F000D5498873D749886803F0EAFFD249C87394
:10120000D449086903F0E4FFCF4908741121CE489E
:1012100001F0ECFB38BD2DE9F04104460D460026F7
:10122000002004E0215C3144CEB2411CC8B2691EEA
:101230008142F7DC601910F8010CB04201D0BDE822
:10124000F0812078AA2802D16078AF2800D0F6E794
:10125000A07810287ED12179090209B2627941EA89
:10126000020003F070FF0746BB4903F04DFEB8498A
:101270000860A179090209B2E27941EA020003F0AB
:1012800062FF0746B54903F03FFEB1498860217A05
:10129000090209B2627A41EA020003F054FF0746EC
:1012A000AD4903F031FEAA490861A17A090209B2E9
:1012B000E27A41EA020003F046FF0746A64903F03E
:1012C00023FEA2490860217B090209B2627B41EA40
:1012D000020003F038FF0746A04903F015FE9B49C2
:1012E0008860A17B090209B2E27B41EA020003F0B7
:1012F0002AFF0746984903F007FE94490861217CBC
:10130000090209B2627C41EA020003F01CFF0746B1
:10131000914903F0F9FD8F490860A17C090209B2E7
:10132000E27C41EA020003F00EFF07468A4903F01F
:10133000EBFD88498860217D090209B2627D41EA9E
:10134000020003F000FF0746834903F0DDFD8149F9
:10135000086100E002E03046FFF704FF00BF6EE7DF
:1013600070B5072001F05EF8044604F04000A0B11B
:10137000602001F057F80546212D09DA2A46784900
:10138000612001F087F829467548FFF744FF03E024
:10139000FF21E22001F02EF800BF04F0200010B180
:1013A000012000F060FC04F0100018B10021E120E1
:1013B00001F020F82146272001F01CF870BD10B57F
:1013C000172001F02FF810BD7FB566480088A0F502
:1013D0007A7000B2039064480088A0F57A7000B279
:1013E000029062480088A0F57A7000B201906048CF
:1013F0000088A0F57A7000B200900024AA2221464D
:10140000641C514842542146641C42540622214621
:10141000641C425400222146641C42549DF80D2055
:101420002146641C42549DF80C202146641C425401
:101430009DF809202146641C42549DF8082020464E
:10144000611CCCB240490A549DF805202046611C1D
:10145000CCB23D490A549DF804202046611CCCB210
:1014600039490A549DF801202046611CCCB2364906
:101470000A549DF800202046611CCCB232490A541F
:10148000201FC8700025002005E02F49095C294471
:10149000CDB2411CC8B2A042F7DB2046611CCCB2E1
:1014A00029490D542146284801F016F87FBD70B532
:1014B0000024AA222146641C234842542146641C6D
:1014C000425403222146641C425400222146641CDB
:1014D0004254284842792146641C1B4842542548FE
:1014E00002792146641C184842542248C279214698
:1014F000641C154842541F4882792046611CCCB2B6
:1015000011490A541B4842782046611CCCB20E494E
:101510000A54184802782046611CCCB20A490A5481
:101520001448C2782046611CCCB207490A541148BD
:1015300082782046611CCCB203490A54201FC8702F
:10154000002500201EE00000FC0100207C0100209E
:101550005C0100209C0100200000C84200007A4489
:10156000680200207C0000207E0000208000002017
:101570008200002030000020B649095C2944CDB229
:10158000411CC8B2A042F7DB2046611CCCB2B14975
:101590000D542146AF4800F09FFF70BD7CB500247C
:1015A000AA222146641CAB4842542146641C425482
:1015B00001222146641C425400222146641C4254EC
:1015C000A5490868A54903F06DFC064603F0E7FD50
:1015D00000B201909DF805202146641C9D484254AC
:1015E0009DF804202146641C42549B4948689B494D
:1015F00003F058FC064603F0D2FD00B201909DF8BE
:1016000005202146641C934842549DF8042020463E
:10161000611CCCB28F490A548F4988688F4903F006
:1016200041FC064603F0BBFD00B201909DF8052089
:101630002046611CCCB287490A549DF804202046FC
:10164000611CCCB283490A548548006800909DF81B
:1016500003202046611CCCB27E490A549DF802202A
:101660002046611CCCB27B490A549DF801202046DB
:10167000611CCCB277490A549DF800202046611CB9
:10168000CCB274490A547748007830B9A022204679
:10169000611CCCB26F490A5409E0724800780128F5
:1016A00005D1A1222046611CCCB26A490A54201FF0
:1016B0006849C8700025002005E06649095C294496
:1016C000CDB2411CC8B2A042F7DB2046611CCCB2AF
:1016D00060490D5421465F4800F0FEFE7CBD10B508
:1016E000FFF73EFEFFF76BFE044604F0100000B962
:1016F00010BD5D48007828B100205B490870FFF7F5
:101700004DFF10E05948007828B100205749087073
:10171000FFF7CDFE07E05648007820B1002054497D
:101720000870FFF751FE00BFE2E770472DE9FE4F5A
:101730004FF0000A4F48008803F024FD00224E4B72
:10174000CDE9000103F090FC06464FF066324B4BAA
:1017500003F018FC04460022494B03F013FC8046BA
:1017600003F063FD02903D49029803F09BFB0446A1
:1017700003F02EFD3F490880AA2251460AF1010AD2
:101780003448425451460AF1010A42540522514656
:101790000AF1010A4254002251460AF1010A425458
:1017A0003448427851460AF1010A2A4842543148E5
:1017B000027851460AF1010A264842542D484278DF
:1017C00051460AF1010A234842542A4802785046F9
:1017D000411C01F0FF0A1F490A542648427851462D
:1017E000481C00F0FF0A1B48425422480278504629
:1017F000411C01F0FF0A17490A541E48427850461E
:10180000411C01F0FF0A13490A541A480278504655
:10181000411C01F0FF0A0F490A54AAF10400C870E4
:101820004FF0000B002006E00A49095C594401F022
:10183000FF0B411CC8B25045F6DB5046411C01F07D
:10184000FF0A044901F800B05146024800F044FE86
:10185000BDE8FE8FFC010020E00000200000C8422F
:101860002C00002038000020850000208700002088
:101870008F000020C40000200000B04066660A40CF
:101880000000264008B54FF4E06001F0DBF81C20B2
:101890008DF8000000208DF8010002208DF8020074
:1018A00001208DF80300684601F0D1F808BD0EB59F
:1018B0000121084601F0AFFF4FF0804002F088F9A7
:1018C000FFF7E0FF4FF4FA70ADF804004720ADF8E1
:1018D00000000020ADF80600ADF8020069464FF0A8
:1018E000804002F049FA0121880703F067F80122DD
:1018F0001146900702F0B7FD0121880702F098FD1C
:101900000EBD000000B585B0012144F2040001F0D5
:1019100075FF4FF40070ADF8100018208DF813001B
:1019200003208DF8120004A9534801F0ABFC4FF4DA
:101930008060ADF8100004208DF8130004A94E4813
:1019400001F0A0FC4FF4E13000900020ADF804005D
:10195000ADF80600ADF80800ADF80C000C20ADF8AD
:101960000A006946454803F084F8012240F22551F7
:10197000424803F016F90121404803F006F905B08A
:1019800000BD08B54FF4E06001F05CF826208DF84A
:10199000000000208DF8010003208DF802000120D6
:1019A0008DF80300684601F052F825208DF80000FC
:1019B00000208DF801008DF8020001208DF8030051
:1019C000684601F044F808BD70B504460D46E1B222
:1019D0002A4803F047F900BF2848008800F080003B
:1019E0000028F9D0204670BD08B54FF4E06001F042
:1019F00029F80F208DF8000000208DF801008DF8E7
:101A0000020001208DF80300684601F020F808BDAF
:101A100000B58BB00121084601F0E3FEFFF7E4FFBB
:101A20001648001D009016480190002002901720D3
:101A300003900020049080200590002006900790DD
:101A4000202008904FF44050099000200A906946E9
:101A50000C4801F02FFB01224021084803F0C6F892
:101A600001220221074801F05CFB0121054801F039
:101A70004CFB0BB000BD00000008014000380140E5
:101A80002E0200205800024000B587B0012104203A
:101A900001F0B4FE0121802001F0B0FE0121080315
:101AA00001F0ACFEE020ADF8040001208DF8060046
:101AB00018208DF8070001A92E4801F0E3FB012052
:101AC000ADF804008DF8060010208DF8070001A97C
:101AD000294801F0D7FB1020ADF8040001208DF853
:101AE000060010208DF8070001A9224801F0CAFB6A
:101AF0001021204801F073FC0020ADF808004FF4DD
:101B00008270ADF80A000020ADF80C00ADF80E00B0
:101B1000ADF810004FF40070ADF812001020ADF8D1
:101B200014000020ADF816000720ADF8180002A937
:101B3000124801F0EDFE0121104801F08EFF07B0C0
:101B400000BD10B5044600BF02210C4802F009F8A0
:101B50000028F9D02146094801F0B0FF00BF01215B
:101B6000064801F0FEFF0028F9D0044801F0A8FF64
:101B7000C0B210BD00080140001C0140003001400F
:101B800070B505460C46012D02D0022D16D10AE093
:101B900024B10221534801F022FC03E00221514804
:101BA00001F01FFC1FE024B104214E4801F017FC96
:101BB00003E004214B4801F014FC14E024B102219D
:101BC000484801F00CFC03E00221464801F009FC02
:101BD00024B10421434801F002FC03E00421414800
:101BE00001F0FFFB00BF00BF70BD08B501218020E0
:101BF00001F004FE10208DF803000620ADF800006F
:101C000003208DF802006946364801F03BFB0121B4
:101C10000320FFF7B5FF642000F0FDF9002101204B
:101C2000FFF7AEFF40F2DC5000F0F5F90021022092
:101C3000FFF7A6FF40F2DC5000F0EDF90121032090
:101C4000FFF79EFF40F2DC5000F0E5F90021032091
:101C5000FFF796FF40F6C41000F0DDF901210320E4
:101C6000FFF78EFF08BD10B504461F480078D8B1B5
:101C70001E48007838B900F0ADF91D490860012010
:101C80001A4908702CE000F0A5F919490968C83113
:101C9000884225D901212046FFF772FF0020134911
:101CA0000870114908701BE01048007838B900F03E
:101CB00091F90F49086001200C49087010E000F00C
:101CC00089F90B490968C831884209D900212046A1
:101CD000FFF756FF002005490870012002490870EF
:101CE00010BD0000001C0140980000209900002059
:101CF0009400002008B50121022001F08CFD012193
:101D0000112001F07BFD18208DF803004FF4707056
:101D1000ADF8000003208DF8020069466E4801F01E
:101D2000B1FA01216D4801F07EFB08BDFEB5002728
:101D30000024002500260020ADF80600ADF80200C2
:101D400044F62060ADF804004720ADF80000694675
:101D5000634802F011F86020624908800020088181
:101D6000012048800846C7805D4802F042F8012102
:101D70005B4802F00FFD01205A4948800846C480A4
:101D8000574802F078F80121554802F015FD01206E
:101D9000544948800846C580514802F0B9F80121ED
:101DA0004F4802F023FD01204E4948800846C68076
:101DB0004B4802F0F8F80121494802F031FD0121B9
:101DC000474802F035FC0121454802F031FBFEBDD9
:101DD00070B505460C46B4F5FA6F04DD4FF4FA60B1
:101DE0004049C88009E0B4F57A7F04DA4FF47A708C
:101DF0003C49C88001E03B48C480012D06D0022D3B
:101E000009D0032D0CD0042D14D10EE035493448EF
:101E100001F0EFFF00BF3349314802F02CF800BF5A
:101E200030492F4802F074F800BF2E492C4802F0C8
:101E3000BAF800BF00BF70BD10B54FF47A742146E8
:101E40000120FFF7C5FF21460220FFF7C1FF214611
:101E50000320FFF7BDFF21460420FFF7B9FF10BDA7
:101E600010B5FFF747FFFFF761FFFFF7E5FF10BD74
:101E700030B5B0F5FA6F01DD4FF4FA60B1F5FA6FE5
:101E800001DD4FF4FA61B2F5FA6F01DD4FF4FA6249
:101E9000B3F5FA6F01DD4FF4FA63B0F57A7F01DA3A
:101EA0004FF47A70B1F57A7F01DA4FF47A71B2F5B6
:101EB0007A7F01DA4FF47A72B3F57A7F01DA4FF460
:101EC0007A73074D343528802D1D29802D1D2A80D9
:101ED0002D1D2B8030BD000000100140000C1A00A9
:101EE000000400404602002010B5002807DA0A0767
:101EF000140E4D4A00F00F031B1FD45403E00A07D1
:101F0000130E4A4A135410BD2DE9F04100204849F0
:101F100008604848006803F035F906460022464B41
:101F200003F0A2F8044603F067F9414948604148CC
:101F3000006803F027F906460022404B03F094F8AE
:101F4000044603F059F93A4988600A20C8600846F7
:101F5000C0684FF47A71B1FBF0F036490968B1FB03
:101F6000F0F4B4F1807F00D311E024F07F40401EF4
:101F70004FF0E02148610F214FF0FF30FFF7B4FF31
:101F800000204FF0E02188610720086100BF002198
:101F9000481EFFF7A9FFBDE8F081254800682449E5
:101FA000C96808442249086070474FF0E020406942
:101FB0004FF0E0218969401A1D494968B0FBF1F0F2
:101FC0001B4A12684FF47A73A2FB0332C01842F125
:101FD000000170474FF0E02040694FF0E02189692F
:101FE000401A13498968B0FBF1F0114909680844A7
:101FF000704770B50446FFF7D8FF021941F10000A1
:10200000951E60F1000600BFFFF7CFFF281A76EBA0
:102010000100F9D270BD10B504464FF47A7104FB8B
:1020200001F0FFF7E6FF10BD18ED00E000E400E06E
:10203000580200200000002080842E4100408F4084
:10204000E048808800B2E0498880DE48C08800B25D
:10205000C880DC48408800B20880DA48008800B2B6
:1020600048807047D84989888180D749C988C1800C
:10207000D54909880180D44949884180704708B50D
:102080004FF4E06000F0DEFC1E208DF80000002020
:102090008DF8010001208DF802008DF803006846DC
:1020A00000F0D5FC08BD00B587B00121042001F087
:1020B000B2FB0121212001F0A1FB04208DF81B00BF
:1020C0004FF47040ADF8180003208DF81A0006A9EF
:1020D000BE4801F0D7F80121080301F0A4F9BC487B
:1020E00001F076FDFFF7CBFF0020ADF81200ADF850
:1020F0000E004FF6FF70ADF810004720ADF80C0051
:1021000003A9B34801F038FE0020ADF80000ADF897
:102110000800ADF80200ADF806000120ADF804009B
:102120006946AB4802F0BBF80420ADF8000000207F
:10213000ADF80800ADF80200ADF806000120ADF8DA
:1021400004006946A24802F0AAF80820ADF8000091
:102150000020ADF80800ADF80200ADF8060001203F
:10216000ADF8040069469A4802F099F80C20ADF8E1
:1021700000000020ADF80800ADF80200ADF8060040
:102180000120ADF804006946914802F088F8012169
:102190008F4802F04DF9012202218D4802F063F9C7
:1021A000012204218A4802F05EF9012208218848B0
:1021B00002F059F901221021854802F054F907B0C4
:1021C00000BD10B582481030008800F0020098B3BE
:1021D0007F49343108887E491031098821F4007123
:1021E0007B4A1032118079490831096801F4805125
:1021F00051B17849088076492031098841F00201BF
:10220000734A2032118022E07349088070492031DE
:10221000098821F002016E4A203211806E49098836
:102220006C4A1288914208DB6B490988694A128816
:10223000891A644A11800AE00AE0664909884FF663
:10224000FF72511A644A128811445E4A118000BF1D
:102250005F481030008800F00400B0B35C493831AA
:1022600008885A490831096801F4005151B15B49A5
:10227000088057492031098841F02001544A203212
:10228000118021E05649088051492031098821F008
:1022900020014F4A20321180514909884F4A128843
:1022A000914207DB4E4909884C4A1288891A454AEF
:1022B000518009E0494909884FF6FF72511A484A8E
:1022C000128811443F4A518000BF414810300088B5
:1022D00000F00800B0B33E493C3108883B49083162
:1022E000096801F4804151B13E49088038492031E4
:1022F000098841F40071364A2032118021E03A49C0
:10230000088033492031098821F40071304A203295
:10231000118035490988334A1288914207DB3249D6
:102320000988304A1288891A264A918009E02D4985
:1023300009884FF6FF72511A2B4A12881144214A1C
:10234000918000BF22481030008800F01000C0B318
:102350001F48403004881D480830006800F40040E1
:1023600050B1224804801A482030008840F40050C0
:1023700017492031088023E01D480480144820308C
:10238000008820F400501249203108801848008845
:1023900016490988884207DB1548008813490988CF
:1023A000401A0849C88009E0104800884FF6FF71BC
:1023B000081A0F49098808440249C880FFF740FEFF
:1023C00000BF10BD9A000020A200002000140140B0
:1023D00000080040AA000020AC000020AE00002051
:1023E000B0000020B2000020B4000020B6000020A1
:1023F000B800002070B505460C460121964800F053
:10240000F0FF1021954800F0ECFF2846FFF799FBFC
:1024100006462046FFF795FB1021904800F0DFFFAD
:10242000304670BD70B5044601218B4800F0D9FFDD
:1024300010218A4800F0D5FF2046FFF782FB0020DC
:10244000FFF77FFB05461021844800F0C8FF2846AF
:1024500070BD2DE9F04107460D46164601217E4824
:1024600000F0BFFF10217D4800F0BBFF3846FFF7AA
:1024700068FB8046002404E0285DFFF762FB601CD7
:10248000C4B2B442F8DB1021744800F0A8FF404603
:10249000BDE8F0812DE9F04107460D4616460121C1
:1024A0006D4800F09EFF10216C4800F09AFF3846FE
:1024B000FFF747FB8046002405E00020FFF741FBC3
:1024C0002855601CC4B2B442F7DB1021634800F009
:1024D00086FF4046BDE8F08170B504460D460121F7
:1024E0005D4800F07EFF05225D493020FFF7B1FF17
:1024F0002A462146A020FFF7ACFF0121564800F0F4
:102500006EFF70BD70B504460D460121524800F0C3
:1025100068FF2A462146A820FFF79BFF01214E486D
:1025200000F05DFF70BD1CB505224D493020FFF75E
:1025300090FF052269461020FFF7ACFF002408E059
:102540001DF804004649095D884200D003E0601C84
:10255000C4B2052CF4DB00BF052C01D101201CBD49
:102560000020FCE770B504460D4601213A4800F012
:1025700038FF05223B492A20FFF76BFF0522384927
:102580003020FFF766FF01212120FFF733FF0121F3
:102590002220FFF72FFF05212420FFF72BFF282102
:1025A0002520FFF727FF0F212620FFF723FF012C0F
:1025B00008D120213120FFF71DFF0F212020FFF738
:1025C00019FF41E0022C08D120213120FFF712FF32
:1025D0000E212020FFF70EFF36E0032C1AD1FF2139
:1025E000E120FFF707FFFF21E220FFF703FF0F21A4
:1025F0002020FFF7FFFE5020FFF7A3FA7320FFF71C
:10260000A0FA01213C20FFF7F5FE06213D20FFF74F
:10261000F1FE19E00E212020FFF7ECFEFF21E12062
:10262000FFF7E8FEFF21E220FFF7E4FE5020FFF76E
:1026300088FA7320FFF785FA01213C20FFF7DAFEC4
:1026400006213D20FFF7D6FE0121034800F0C7FE1A
:102650006420FFF7E0FC70BD001C01400008014051
:10266000BA000020BF00002008B50121084601F093
:10267000B8F801214FF4017001F0C0F80120ADF865
:10268000000000208DF803006946374800F0FAFD8D
:1026900008BD00B591B0354800F06AFC344806909A
:1026A00034480790002008900120099000200A90EB
:1026B0000B904FF480700C9080000D9020200E90B5
:1026C00000020F900020109006A9284800F0F2FCAC
:1026D0000121264800F019FD0020019001208DF80D
:1026E00008008DF809004FF460200390002004904A
:1026F00001208DF8140001A91D484C3800F037FA6C
:102700000523012200211A484C3800F0C8FA0121A3
:1027100017484C3800F062FA012115484C3800F097
:1027200052FA13484C3800F070FA00BF10484C3889
:1027300000F070FA0028F9D10D484C3800F074FA16
:1027400000BF0B484C3800F074FA0028F9D1012181
:1027500007484C3800F077FA11B000BD10B5FFF70C
:1027600083FFFFF796FF10BD0008014008000240FC
:102770004C240140C400002000B585B00121042094
:1027800001F03CF80121480401F045F80420ADF8BF
:10279000100018208DF8130003208DF8120004A9F2
:1027A000A24800F06FFD0820ADF8100004208DF85D
:1027B000130004A99D4800F065FD4FF4E13000903E
:1027C0000020ADF80400ADF80600ADF80800ADF843
:1027D0000C000C20ADF80A006946954802F049F952
:1027E000012240F22551924802F0DBF90121904884
:1027F00002F0CBF905B000BD08B54FF4C06000F0A1
:1028000021F910208DF8000000208DF80100012032
:102810008DF802008DF80300684600F018F908BD35
:10282000F0B503460D461646002729460A2E03D06A
:10283000002008702846F0BD33B9302001F8010BA4
:10284000002008702846F6E7002B03DA2D2001F857
:10285000010B5B4242F210720DE093FBF2F404B9FB
:1028600037B104F1300001F8010B04FB12330127EA
:102870000A2092FBF0F2002AEFDC002008702846C4
:10288000D9E70FB470B586B006460CA8019073E086
:102890000B9800785C281CD10B98401C0B9000789A
:1028A0006E2809D072280FD10D21304602F0DAF9D6
:1028B0000B98401C0B900BE00A21304602F0D2F935
:1028C0000B98401C0B9003E00B98401C0B9000BF32
:1028D0004BE00B980078252840D10B98401C0B90BA
:1028E0000078642818D0732833D1019810C801905B
:1028F0000BE02178304602F0B5F900BF40213046A8
:1029000002F01EFA0028F9D0641C20780028F0D1CB
:102910000B98401C0B9020E0019820C801900A22DF
:1029200002A92846FFF77CFF02AC0BE02178304675
:1029300002F098F900BF4021304602F001FA002869
:10294000F9D0641C20780028F0D10B98401C0B9023
:1029500003E00B98401C0B9000BF06E00B9810F8AA
:10296000011B0B90304602F07DF900BF402130463C
:1029700002F0E6F90028F9D00B980078002887D1FA
:1029800006B070BC5DF814FB00B58BB001210846A1
:1029900000F027FFFFF730FF2548001D0090254875
:1029A00001900020029017200390002004908020C6
:1029B00005900020069007902020089000020990C2
:1029C00000200A9069461C4800F074FB0122402157
:1029D000174802F00BF901220221174800F0A1FB71
:1029E0000121154800F091FB0BB000BD70B5044605
:1029F0000D4600200AE0225C10490B780978491C3A
:102A00000E4E31700E49CA54411CC8B2A842F2DBC6
:102A100007480C30008800F0800028B9012240F2FD
:102A20002771034802F0BDF870BD000000080140A6
:102A3000004400402E0200206C000240C70000202D
:102A4000A802002031490143314A1160704770B536
:102A5000002100230F22C47804B32D4C246804F411
:102A6000E064C4F5E064210AC1F10403CA4044787B
:102A700004FA03F18478144021430901254C0678B7
:102A8000A155047804F01F050124AC4005786D11B0
:102A9000AD0005F1E025C5F8004109E0047804F037
:102AA0001F050124AC401C4D0678761145F82640E0
:102AB00070BD1A4A0A400243154B1B1F1A6070472B
:102AC00039B1134A121D12680243114B1B1D1A60C3
:102AD00006E00F4A121D126882430D4B1B1D1A603F
:102AE0007047042808D14FF0E021096941F0040142
:102AF0004FF0E022116107E04FF0E021096921F079
:102B000004014FF0E0221161704700000000FA0557
:102B10000CED00E000E400E080E100E080FFFF1F3A
:102B200010B50446FA48844208D10121401500F04E
:102B30007FFE0021601500F07BFE17E0F54884421F
:102B400008D10121001500F073FE0021201500F0CE
:102B50006FFE0BE0F048844208D10121C80300F069
:102B600067FE00214FF4004000F062FE10BD30B55A
:102B70000246002000235068E84C20400D790C6884
:102B800044EA0524204350609068E54C2040D1E998
:102B900002542C434D7944EA450420439060D06AA6
:102BA00020F470000C7C641EE4B2234340EA03501E
:102BB000D06230BD00210160017141718160C1604E
:102BC00001210174704721B1826842F001028260E4
:102BD00003E0826822F001028260704721B18268BE
:102BE00042F48072826003E0826822F48072826024
:102BF000704710B50023CBB21AB144681C4344603F
:102C000002E044689C43446010BD816841F00801C3
:102C100081607047014600208A6802F008020AB10C
:102C2000012000E000207047816841F004018160CC
:102C30007047014600208A6802F004020AB10120B0
:102C400000E00020704721B1826842F4A002826057
:102C500003E0826822F4A0028260704701460020EF
:102C60008A6802F480020AB1012000E00020704767
:102C700010B50A4600210023416821F46041531E2B
:102C800041EA4331416010BD21B1426842F4006223
:102C9000426003E0426822F4006242607047F0B58F
:102CA00004460D4600200021092D11DDE068A5F144
:102CB0000A0606EB4607072606FA07F18843A5F140
:102CC0000A0606EB460603FA06F10843E0600CE04C
:102CD000206905EB4507072606FA07F1884305EB4F
:102CE000450603FA06F108432061072A0FDA606BF4
:102CF000561E06EB86071F2606FA07F18843561E66
:102D000006EB860605FA06F10843606322E00D2A09
:102D10000FDA206BD61F06EB86071F2606FA07F18F
:102D20008843D61F06EB860605FA06F108432063A2
:102D300010E0E06AA2F10D0606EB86071F2606FAF0
:102D400007F18843A2F10D0606EB860605FA06F1A7
:102D50000843E062F0BD21B1826842F480128260D3
:102D600003E0826822F48012826070470146C86CDA
:102D700080B2704766484C300068704721B14268A5
:102D800042F48062426003E0426822F48062426062
:102D9000704721B1426842F48052426003E04268C9
:102DA00022F48052426070470A460021816821F473
:102DB000E04111438160704721B1826842F40042D2
:102DC000826003E0826822F400428260704721B191
:102DD000826842F40212826003E0826822F40212E6
:102DE00082607047014600208A6802F400120AB12E
:102DF000012000E000207047F0B504461546002091
:102E000000220026092911DDE068A1F10A0707EB7D
:102E1000470C072707FA0CF29043A1F10A0707EBCA
:102E2000470703FA07F21043E0600CE0206901EB6A
:102E3000410C072707FA0CF2904301EB410703FA14
:102E400007F210432061A06BC0F30156EF1C06F19E
:102E5000010CA7EB0C0707EB870C1F2707FA0CF2F6
:102E60009043EF1C06F1010CA7EB0C0707EB87075B
:102E700001FA07F21043A063F0BD10B50A46002125
:102E80000023816B21F44011531E41EA03518163F9
:102E900010BD08B5002300930090009B0B440093E5
:102EA000009B1A6008BD08B5024600200090009201
:102EB00001F12800009B184400900098006880B23F
:102EC00008BD0A4600214168164B19401143416074
:102ED00070474162826270470A460021416821F0D2
:102EE0001F0111434160704740B109490831096829
:102EF00041F40001064A0832116007E00449083134
:102F0000096821F40001024A08321160704700008C
:102F10000024014000280140003C0140FFFEF0FF7A
:102F2000FDF7F1FFFFFD3FFF0246002013680B4055
:102F30000BB1012000E000207047CA4302607047D7
:102F400070B502460020002300240B125568CEB253
:102F500005EA060415681D4015B10CB1012000E01A
:102F6000002070BD00220A12D343036070470000A6
:102F700001684FF6FE72114001600021016041605E
:102F80008160C1608D49884208D18C4908394968FF
:102F900041F00F01894A083A51608AE087491431AB
:102FA000884208D185490839496841F0F001834ACF
:102FB000083A51607DE081492831884208D17F4933
:102FC0000839496841F470617C4A083A516070E000
:102FD0007A493C31884208D178490839496841F436
:102FE0007041764A083A516063E074495031884232
:102FF00008D172490839496841F470216F4A083A8A
:10300000516056E06D496431884208D16B490839F6
:10301000496841F47001694A083A516049E06749DA
:103020007831884208D165490839496841F07061B2
:10303000624A083A51603CE06149884206D1011F6A
:10304000096841F00F01021F116032E05C49143140
:10305000884208D15A49091F096841F0F001584ACD
:10306000121F116025E056492831884208D1544981
:10307000091F096841F47061514A121F116018E07C
:103080004F493C31884208D14D49091F096841F434
:1030900070414B4A121F11600BE049495031884280
:1030A00007D14749091F096841F47021444A121F9A
:1030B0001160704710B50022026847F6F0739A431A
:1030C0000C6A8B6823430C6923434C6923438C6946
:1030D0002343CC6923434C6A23438C6A23431A431A
:1030E0000260CB6843600B6883604B68C36010BDAF
:1030F0000021016041608160C160016141618161C5
:10310000C161016241628162704721B1026842F08F
:103110000102026004E002684FF6FE731A4002608A
:1031200070471AB103680B43036002E003688B43E6
:1031300003607047416070470146486880B270473D
:1031400001460020002201F080531BB11C4B083BBC
:103150001A6802E0194B083B1A6802EA01030BB136
:10316000012000E00020704700F0805119B114499F
:10317000091F086002E0114908394860704701469C
:103180000020002201F080531BB10D4B083B1A6850
:1031900002E00A4B083B1A6802EA01030BB1012066
:1031A00000E00020704700F0805119B10449091F68
:1031B000086002E001490839486070470800024091
:1031C0000804024010B50446CC48844208D10121CD
:1031D000042000F02DFB0021042000F029FB46E034
:1031E000C748844208D10121082000F021FB0021BA
:1031F000082000F01DFB3AE0C248844208D10121BA
:10320000102000F015FB0021102000F011FB2EE033
:10321000BD48844208D10121202000F009FB002193
:10322000202000F005FB22E0B848844208D10121AB
:10323000402000F0FDFA0021402000F0F9FA16E0ED
:10324000B348844208D10121802000F0F1FA002126
:10325000802000F0EDFA0AE0AE48844207D1012157
:10326000801500F0E5FA0021A01500F0E1FA10BD8C
:1032700010B50121084600F0DBFA0021012000F022
:10328000D7FA10BD2DE9F0410246002500260020A6
:1032900000230024002791F803C00CF00F0591F8DB
:1032A00003C00CF0100CBCF1000F03D091F802C069
:1032B0004CEA050591F800C0BCF1000F31D014684C
:1032C00000202BE04FF0010C0CFA00F3B1F800C025
:1032D0000CEA03069E4220D183004FF00F0C0CFA3B
:1032E00003F7BC4305FA03FC4CEA040491F803C05D
:1032F000BCF1280F06D14FF0010C0CFA00FCC2F80B
:1033000014C00AE091F803C0BCF1480F05D14FF09A
:10331000010C0CFA00FCC2F810C0401C0828D1D3E4
:103320001460B1F800C0BCF1FF0F34DD5468002018
:103330002EE000F1080C4FF0010808FA0CF3B1F888
:1033400000C00CEA03069E4221D183004FF00F0C0F
:103350000CFA03F7BC4305FA03FC4CEA040491F8A9
:1033600003C0BCF1280F05D100F1080C08FA0CF8D5
:10337000C2F8148091F803C0BCF1480F07D100F1E6
:10338000080C4FF0010808FA0CF8C2F81080401C35
:103390000828CED35460BDE8F0814FF6FF7101805C
:1033A000022181700421C170704702460020936899
:1033B0000B400BB1012000E00020704701468868F7
:1033C00080B2704702460020D3680B400BB1012049
:1033D00000E0002070470146C86880B27047016174
:1033E0007047416170470AB1016100E04161704777
:1033F000C16070474FF480320A438261816182610B
:1034000082698269704702460020434B18684FF674
:103410008073184040EA021008433F4B1860704721
:103420003E49C8617047F0B50A46002300240021D8
:10343000002500F00046B6F1004F02D1364EF1698A
:1034400001E0354E7168C0F3034583B200F44016C5
:10345000B6F5401F08D121F070612F4E766826F036
:1034600070662D4F7E6012E000F48016B6F5801F66
:1034700006D1032606FA05F4A14341F0706106E087
:10348000460D360103FA06F6B14341F0706122B1F0
:10349000460D360103FA06F6314300F00046B6F158
:1034A000004F02D11C4EF16101E01B4E7160F0BD76
:1034B00030B500228B071C0F0F2303FA04F2164BC2
:1034C00008338C1053F824309343134C08348D1078
:1034D00044F8253023468C1053F824308C07240FF1
:1034E00000FA04F423430C4C08348D1044F82530C2
:1034F00030BD0A49DC310860704700000008014017
:10350000000C01400010014000140140001801406F
:10351000001C01400020014000000140000020424A
:10352000DF48006840F00100DD4908600846406857
:10353000DC490840DA49486008460068DA49084032
:10354000D74908600846006820F4802008600846D3
:10355000406820F4FE0048604FF41F008860704708
:10356000CF49096821F48031CD4A116011460968BC
:1035700021F480211160B0F5803F03D0B0F5802F99
:103580000ED106E0C649096841F48031C44A116091
:1035900007E0C349096841F4A021C14A116000E075
:1035A00000BF00BF704710B5014600220023002075
:1035B0004A11012A02D1BA4C236806E0022A02D13C
:1035C000B74C236A01E0B64C636A01F01F02012484
:1035D00094401C400CB1012000E0002010BD38B523
:1035E000002000900024002500BF3120FFF7DBFF02
:1035F00005460098401C00900098B0F5A06F01D0DF
:10360000002DF2D03120FFF7CEFF08B1012400E0F9
:103610000024204638BD01460020A14A106820F051
:10362000F80040EAC10010607047A0490860704788
:10363000024600209A4B586820F47C1042EA0103AD
:103640001843974B58607047984908667047014681
:103650000020934A506820F00300084350607047F0
:103660008F48406800F00C007047014600208C4AEB
:10367000506820F0F0000843506070470146002079
:10368000874A506820F4E060084350607047014664
:103690000020834A506820F4605040EAC100506026
:1036A000704729B17E4A527A02437D4B5A7204E038
:1036B0007B4A527A82437A4B5A7270477B49D8319F
:1036C0000860704701460020754A506820F4404069
:1036D0000843506070470021714A20321170704ACF
:1036E00082F82010012802D004280AD104E0012128
:1036F0006B4A2032117005E00521694A20321170B1
:1037000000E000BF00BF7047694908607047644926
:10371000096A0143624A1162704765494439086089
:10372000704730B500210022002400235C4D6D68F5
:1037300005F00C0121B1042905D0082923D105E0A9
:103740005C4D056022E05B4D05601FE0544D6D68E7
:1037500005F47012524D6D6805F48034022505EBB6
:1037600092421CB9544D554305600BE04C4D6D68B9
:1037700005F400351DB1504D5543056002E04D4D37
:103780005543056002E04B4D056000BF00BF444D4E
:103790006D6805F0F0010909484D6B5C0568DD4076
:1037A00045603F4D6D6805F4E061090A434D6B5C6F
:1037B0004568DD4085603A4D6D6805F46051C90A81
:1037C0003E4D6B5C4568DD40C560354D6D6805F468
:1037D0004041890B3A4D6B5CC568B5FBF3F505615B
:1037E00030BD29B12E4A526902432D4B5A6104E083
:1037F0002B4A526982432A4B5A61704729B1284AA1
:1038000092690243264B9A6104E0254A92698243F9
:10381000234B9A61704729B1214AD2690243204B58
:10382000DA6104E01E4AD26982431D4BDA617047B7
:1038300029B11B4AD2680243194BDA6004E0184AE6
:10384000D2688243164BDA60704729B1144A126974
:103850000243134B1A6104E0114A12698243104B70
:103860001A61704712494039086070470F49C864AF
:1038700070470B49C87170470948406A40F0807032
:1038800007494862704701460020054A92680A408D
:103890000AB1012000E0002070470149887270479A
:1038A000001002400000FFF8FFFFF6FE0000424259
:1038B0008004424200127A0000093D00C800002046
:1038C000D800002010B50446BE48844208D101212A
:1038D0008014FFF7ADFF0021A014FFF7A9FF16E049
:1038E000B948844208D101210014FFF7AEFF00213E
:1038F0002014FFF7AAFF0AE0B448844207D101214F
:10390000C013FFF7A2FF0021E013FFF79EFF10BDD9
:1039100010B50022028802F441520B884C882343E0
:103920008C882343CC8823430C8923434C8923432D
:103930008C892343CC8923431A430280838B4FF223
:10394000FF74234083830B8A038210BD2DE9F04F5F
:1039500085B005460C464FF0000902274FF00008DD
:103960004FF0010B0026B246A88B4FF240010840F1
:10397000A88302202884B5F81C90A068022801D1F1
:1039800000BF38E0A08810B94FF0010B01E04FF004
:10399000020B8D48854200D100E000BF6846FFF76A
:1039A000C0FEDDF800A0E088B0F5007F0AD14FEA44
:1039B0001A2000EB80004000A168B0FBF1F0401D30
:1039C00086B20BE04FEA4B10BAFBF0F000EB800040
:1039D0004000A168B0FBF1F0401D86B20A20B6FBA2
:1039E000F0F606F00108A6EB0800C0F34F074FF60B
:1039F000FF7000EA0828022F01DBFF2F02DD0227FB
:103A00004FF00008E08840EA080038432884A08886
:103A1000A1890843618808432188084340F4006075
:103A200040EA0909A5F81C9005B0BDE8F08F002117
:103A3000018041808180C180018141818181C1817A
:103A40000721018270470021018041808180C1806F
:103A50000221816000218181704721B1028842F0FA
:103A60004002028004E002884FF6BF731A400280D1
:103A7000704721B1828B42F48062828304E0828BA2
:103A80004FF6FF331A408283704730B5002400237D
:103A90000C110125A540ABB21AB185881D43858064
:103AA00002E085889D43858030BD1AB183880B4331
:103AB000838002E083888B438380704781817047D5
:103AC0000146888970474FF6FF62914204D0028810
:103AD00042F48072028004E002884FF6FF631A40CD
:103AE0000280704721B1828842F00402828004E0A3
:103AF00082884FF6FB731A408280704702884FF22B
:103B0000FF731A40028002880A43028070470188CE
:103B100041F480510180704721B1028842F4005283
:103B2000028004E002884DF6FF731A40028070475D
:103B300002460020012901D0108B00E0908A7047D6
:103B40000146088A7047B1F5804F04D1028842F4DB
:103B50008042028004E002884BF6FF731A40028024
:103B600070470246002013890B400BB1012000E092
:103B700000207047CA4302817047F0B5024600201A
:103B800000240023002501F00F070126BE40B4B237
:103B90000B1101269E40B3B2968806EA03051689EA
:103BA000264016B10DB1012000E00020F0BD10B597
:103BB000002201F00F040123A3409AB2D3430381F2
:103BC00010BD00000030014000380040003C0040C3
:103BD00010B50446FE48844208D10121C014FFF705
:103BE00027FE0021E014FFF723FEC4E0B4F1804F6C
:103BF00008D101210846FFF728FE00210120FFF728
:103C000024FEB8E0F348844208D101210220FFF7E6
:103C10001CFE00210220FFF718FEACE0EE488442B3
:103C200008D101210420FFF710FE00210420FFF736
:103C30000CFEA0E0E948844208D101210820FFF7EA
:103C400004FE00210820FFF700FE94E0E4488442CF
:103C500008D101211020FFF7F8FD00211020FFF707
:103C6000F4FD88E0DF48844208D101212020FFF7DD
:103C7000ECFD00212020FFF7E8FD7CE0DA488442DB
:103C800008D101214014FFF7D3FD00216014FFF794
:103C9000CFFD70E0D548844209D10121C804FFF767
:103CA000C7FD00214FF40020FFF7C2FD63E0D048BC
:103CB000844209D101210805FFF7BAFD00214FF424
:103CC0008010FFF7B5FD56E0CA48844209D10121B2
:103CD0004805FFF7ADFD00214FF40010FFF7A8FDE8
:103CE00049E0C548844208D101214020FFF7ADFDDD
:103CF00000214020FFF7A9FD3DE0C048844208D1E3
:103D000001218020FFF7A1FD00218020FFF79DFD0C
:103D100031E0BB48844208D101218015FFF795FDB1
:103D20000021A015FFF791FD25E0B648844209D196
:103D300001210804FFF77CFD00214FF48030FFF7DC
:103D400077FD18E0B048844209D101214804FFF70B
:103D50006FFD00214FF40030FFF76AFD0BE0AB4828
:103D6000844208D101218804FFF762FD00214FF44D
:103D70008020FFF75DFD10BD00220288944B984221
:103D80000ED0994B98420BD0B0F1804F08D0914B98
:103D9000984205D0904B984202D0904B984204D163
:103DA0004FF68F731A404B881A438D4B984207D0B9
:103DB0008C4B984204D04FF6FF431A40CB881A43ED
:103DC00002808B8883850B880385814B98420BD0BA
:103DD000854B984208D08B4B984205D08A4B98422D
:103DE00002D08A4B984201D10B7A03860123838249
:103DF000704770B5002400220023058C4FF6FE7634
:103E000035400584028C8388048B4FF68F752C40D7
:103E1000B51E2C400D882C43751E2A400D892A435F
:103E20004D882A436A4DA8420BD06F4DA84208D056
:103E3000744DA84205D0744DA84202D0734DA842DB
:103E400013D14FF6F7752A404D892A434FF6FB757B
:103E50002A408D882A434FF6FF652B404FF6FF55C9
:103E60002B408D892B43CD892B4383800483CD88C0
:103E70008586028470BD70B5002400220023058C65
:103E80004FF6EF7635400584028C8388048B48F624
:103E9000FF752C404FF6FF452C400D884FF6FF76FE
:103EA00006EA05252C434FF6DF752A400D8906EA00
:103EB00005152A434D8806EA05152A43444DA842B4
:103EC00002D0494DA8421DD14FF67F752A404D8939
:103ED0004FF6FF7606EA05152A434FF6BF752A40CE
:103EE0008D8806EA05152A434FF6FF352B404FF221
:103EF000FF752B408D8906EA85052B43CD8906EA9F
:103F000085052B4383800483CD880587028470BD9B
:103F100070B5002400220023058C4FF6FF66354063
:103F20000584028C8388848B4FF68F752C404FF666
:103F3000FC752C400D882C434FF6FF552A400D8907
:103F40004FF6FF7606EA05252A434D8806EA052541
:103F50002A431F4DA84202D0234DA8421DD14FF243
:103F6000FF752A404D894FF6FF7606EA05252A435C
:103F70004FF6FF352A408D8806EA05252A434EF67E
:103F8000FF752B404DF6FF752B408D8906EA051510
:103F90002B43CD8906EA05152B4383808483CD8886
:103FA0008587028470BD70B5002200230024058C33
:103FB0004EF6FF7635400584038C8488828B48F664
:103FC000FF752A404FF6FF452A400D8820E000008B
:103FD000002C01400004004000080040000C00409C
:103FE000001000400014004000340140004C01402B
:103FF000005001400054014000180040001C0040E7
:1040000000200040004001400044014000480140C1
:104010004FF6FF7606EA05252A434DF6FF752B403D
:104020000D8906EA05352B434D8806EA05352B43F5
:10403000FA4DA84202D0FA4DA84208D14BF6FF75BE
:104040002C408D894FF6FF7606EA85152C43848037
:104050008283CD88A0F84050038470BD828B4FF2DC
:10406000FF331A408283828B4FF6FF7303EA0123EA
:104070001A4382837047F0B50C4615460022002192
:104080000026078C4EF6FF7C07EA0C070784828B1C
:10409000018C4FF6FF7707EA043640F6FF473A40B7
:1040A0004FF6FF7707EA05273A434FF6FF7707EA0F
:1040B00003373A43D94FB8420ED0D94FB8420BD04C
:1040C000B0F1804F08D0D74FB84205D0D64FB84294
:1040D00002D0D64FB84206D14DF6FF77394046F4AC
:1040E0008057394305E047F6FF57394044F480577D
:1040F000394382830184F0BD828B4FF6F3731A40FB
:104100008283828B0A4382837047F0B50C46154642
:10411000002200210026078C4FF6FF6C07EA0C07EF
:104120000784828B018C4FF6FF7707EA04264FF64F
:104130000C773A404FF6FF7707EA03172F433A43CD
:10414000B64FB8420ED0B64FB8420BD0B0F1804F48
:1041500008D0B44FB84205D0B34FB84202D0B34FE5
:10416000B84206D14FF6FF57394046F480773943BD
:1041700005E04FF2FF57394044F48077394382839A
:104180000184F0BD028B4FF2FF331A400283028B91
:104190004FF6FF7303EA01231A4302837047F0B519
:1041A0000C461546002200210026078C4FF6EF7CB6
:1041B00007EA0C070784028B018C4FF6FF7707EAAA
:1041C000041640F6FF473A404FF6FF7707EA0337F9
:1041D0003A434FF6FF7707EA05273A438F4FB84235
:1041E0000ED08F4FB8420BD0B0F1804F08D08D4F1A
:1041F000B84205D08C4FB84202D08C4FB84206D19D
:104200004FF6DF77394046F01007394305E04FF6A7
:104210005F77394044F01007394302830184F0BDD1
:10422000028B4FF6F3731A400283028B0A43028318
:104230007047F0B50C46154600220021068C4FF65B
:10424000FE773E400684028B018C4FF60C7632409E
:104250007E1C06EA03162E433243704EB0420ED047
:104260006F4EB0420BD0B0F1804F08D06D4EB042CF
:1042700005D06D4EB04202D06C4EB04206D14FF622
:10428000FD76314044F00106314305E04FF6F57606
:10429000314044F00106314302830184F0BD70B522
:1042A00005460C465D4885420ED05D4885420BD0E0
:1042B000B5F1804F08D05B48854205D05A48854209
:1042C00002D05A48854200D100E000BF208850B992
:1042D0002389A28861882846FFF7ABFFE18828463A
:1042E000FFF79EFF25E0208804280AD12389A288B1
:1042F00061882846FFF753FFE1882846FFF742FF11
:1043000017E0208808280AD12389A28861882846D6
:10431000FFF7FBFEE1882846FFF7EEFE09E0238960
:10432000A28861882846FFF7A6FEE1882846FFF7A5
:1043300095FE70BD2DE9F04105460C46002601278B
:10434000608808B9022600E00026A088012801D173
:10435000022700E001272088A0B92389A28861886C
:104360002846FFF766FFE1882846FFF759FF2389B3
:104370003A4631462846FFF712FFE1882846FFF704
:1043800001FF13E02389A28861882846FFF707FF11
:10439000E1882846FFF7F6FE23893A46314628464B
:1043A000FFF747FFE1882846FFF73AFFBDE8F081B5
:1043B0000A884B881A438B881A43CB881A430B8987
:1043C0001A434B891A438B891A43A0F8442070473B
:1043D0004FF6FF71818000210180C1804180017210
:1043E00070470021018041808180C180018141812D
:1043F0008181C1817047002101804180012181803C
:104400000021C180018170470021018041808180AD
:10441000C18001814181818170470000002C0140F1
:10442000003401400004004000080040000C00403F
:1044300021B1028842F00102028004E002884FF6B6
:10444000FE731A400280704731B1B0F8442042F444
:104450000042A0F8442005E0B0F84420C2F30E0268
:10446000A0F8442070471AB183890B43838102E08E
:1044700083898B43838170478182704741EA0203BD
:10448000A0F8483070471AB183890B43838102E05A
:1044900083898B438381704701894FF6F8721140FD
:1044A000018170470A46002101894FF68F73194038
:1044B00011430181704730B504460D462946204618
:1044C000FFF7F0FF208940F00700208130BD2DE983
:1044D000F04104460D4616461F46602D06D13B4668
:1044E000012231462046FFF75AFE05E03B460122F5
:1044F00031462046FFF79DFE29462046FFF7D2FFB2
:10450000208940F007002081BDE8F08130B50C46DD
:1045100000210189C9B24FF6FF7505EA032515434D
:1045200025432943018130BD2DE9F04105460E4662
:1045300017469846002443463A4631462846FFF738
:10454000E5FF2C894FF6F870044044F007044FF65D
:104550008F70044044F070042C81BDE8F081F0B508
:1045600004460D4616461F463B463246294620461F
:10457000FFF7CCFF208940F480402081F0BD018509
:10458000828270470A46002101884FF68F731940D6
:10459000114301807047F0B50C4615461E460021B8
:1045A000002200230189028B038C4FF6F8773940F3
:1045B00021434FF6FC473A4040F201173A434FF689
:1045C000DD773B404FF6FF7707EA06172F433B4363
:1045D000018102830384F0BD0A460021018B4FF65E
:1045E0008F7319401143018370470A460021018BE4
:1045F00048F6FF7319404FF6FF7303EA022319438D
:10460000018370470A460021818B4FF68F73194052
:104610001143818370470A460021818B48F6FF735E
:1046200019404FF6FF7303EA022319438183704751
:1046300021B1028842F08002028004E002884FF635
:104640007F731A400280704721B1828842F00402D1
:10465000828004E082884FF6FB731A4082807047A4
:1046600021B1828842F00802828004E082884FF6FD
:10467000F7731A408280704721B1828842F00102AC
:10468000828004E082884FF6FE731A408280704771
:104690000A460021018B4FF6F7731940114301833D
:1046A00070470A460021018B4FF2FF7319404FF605
:1046B000FF7303EA02231943018370470A4600216E
:1046C000818B4FF6F77319401143818370470A4677
:1046D0000021818B4FF2FF7319404FF6FF7303EAFD
:1046E00002231943818370470A460021018B4FF64C
:1046F000FB7319401143018370470A460021018B67
:104700004FF6FF3319404FF6FF7303EA02231943B4
:10471000018370470A460021818B4FF6FB731940D5
:104720001143818370470A460021818B4FF6FF3386
:1047300019404FF6FF7303EA022319438183704740
:104740000A460021018B4FF67F7319401143018304
:1047500070470A460021018BC1F30E014FF6FF732B
:1047600003EA02231943018370470A460021818B23
:104770004FF67F7319401143818370470A46002129
:10478000818BC1F30E014FF6FF7303EA0223194335
:10479000818370470A460021018C4FF6FD73194052
:1047A0001143018470470A460021018C4FF6F773CC
:1047B00019401143018470470A460021018C4FF6CD
:1047C000DF7319404FF6FF7303EA021319430184A4
:1047D00070470A460021018C4FF67F7319404FF64F
:1047E000FF7303EA02131943018470470A4600214C
:1047F000018C4FF6FF5319404FF6FF7303EA022373
:104800001943018470470A460021018C4FF2FF735F
:1048100019404FF6FF7303EA0223194301847047DE
:104820000A460021018C4DF6FF7319404FF6FF73C5
:1048300003EA023319430184704730B50023012491
:104840008C40A3B2048C9C430484048C02FA01F5CE
:10485000ADB22C43048430BD30B5002304248C4019
:10486000A3B2048C9C430484048C02FA01F5ADB21B
:104870002C43048430BD70B5034600200024184644
:10488000183001258D40ACB21D8CA5431D8409B1A3
:10489000082909D100EB6100056825F07005056065
:1048A0000568154305600EE00D1FC5F34E0528444D
:1048B000056825F4E045056005684FF6FF7606EAD1
:1048C00002263543056070BD21B1028842F0020224
:1048D000028004E002884FF6FD731A4002807047A0
:1048E00021B1028842F00402028004E002884FF6FF
:1048F000FB731A400280704721B1828842F0800227
:10490000828004E082884FF67F731A40828070476D
:1049100002884FF6F7731A40028002880A43028029
:10492000704782884FF68F731A40828082880A43CC
:104930008280704702894FF6F8731A40028102891B
:104940000A430281704702894FF67F731A40028141
:1049500002890A43028170478184704781857047CC
:10496000818670470187704781877047A0F84010A3
:10497000704702884FF6FF431A40028002880A43BC
:10498000028070470146888E70470146088F704745
:104990000146888F70470146B1F8400070470146D4
:1049A000888C70470146088D704702460020138AA4
:1049B0000B400BB1012000E000207047CA43028287
:1049C000704730B50246002000230024158A05EA0E
:1049D0000103958905EA010413B10CB1012000E03F
:1049E000002030BDCA4302827047000010B5044663
:1049F000FB48844209D101218803FEF719FF0021F9
:104A00004FF48040FEF714FF32E0F648844209D1AB
:104A100001214804FEF719FF00214FF40030FEF792
:104A200014FF25E0F048844209D101218804FEF7F3
:104A30000CFF00214FF48020FEF707FF18E0EB4841
:104A4000844209D10121C804FEF7FFFE00214FF482
:104A50000020FEF7FAFE0BE0E548844208D1012170
:104A60000805FEF7F2FE00214FF48010FEF7EDFE80
:104A700010BD2DE9F04786B005460E460024A2463B
:104A800000BFA1460027B08900B100BF2F462C8A85
:104A90004CF6FF700440F08804432C82AC894EF63B
:104AA000F3100440B08831890843718908430443F6
:104AB000AC81AC8A4FF6FF400440B0890443AC821D
:104AC00001A8FEF72EFEC648874202D1DDF810A0ED
:104AD00001E0DDF80CA0A88900F4004040B10AEB29
:104AE000CA0000EB0A1031684900B0FBF1F807E09A
:104AF0000AEBCA0000EB0A1031688900B0FBF1F83C
:104B00006420B8FBF0F004012009642101FB108946
:104B1000A88900F4004040B1322000EBC900B0FB8E
:104B2000F1F000F00700044308E0322000EB091028
:104B30006421B0FBF1F000F00F0004432C8106B0BB
:104B4000BDE8F0874FF41651016000218180C180DB
:104B500001810C21418100218181704710B50246FD
:104B60000020108A4FF2FF0318400B884C88234323
:104B70008C882343CC8823431843108210BD002126
:104B8000018041808180C180704721B1828942F4D7
:104B90000052828104E082894DF6FF731A408281BF
:104BA0007047F0B50346002400260025002040F69B
:104BB0006A17B94200D100BF1846C1F3421401F090
:104BC0001F06012707FA06F5012C01D10C3004E07D
:104BD000022C01D1103000E014301AB107682F43C5
:104BE000076002E00768AF430760F0BD1AB1838A2F
:104BF0000B43838202E0838A8B4383827047028A5D
:104C00004FF6F0731A400282028A0A43028270470A
:104C100082894FF2FF731A40828182890A4382811E
:104C2000704721B1828942F00202828104E08289C8
:104C30004FF6FD731A4082817047028A4FF6DF7388
:104C40001A400282028A0A430282704721B1028A14
:104C500042F48042028204E0028A4BF6FF731A405B
:104C600002827047C1F3080282807047014688883B
:104C7000C0F308007047818941F0010181817047CC
:104C8000028BD2B20283028B42EA01220283704776
:104C9000028B02F47F420283028B0A430283704735
:104CA00021B1828A42F02002828204E0828A4FF699
:104CB000DF731A408282704721B1828A42F010026B
:104CC000828204E0828A4FF6EF731A408282704734
:104CD00021B1828A42F00802828204E0828A4FF681
:104CE000F7731A408282704721B1828942F40042F0
:104CF000828103E08289C2F30E028281704721B172
:104D0000828A42F40062828204E0828A4FF2FF7358
:104D10001A4082827047828A4FF6FB731A40828261
:104D2000828A0A438282704721B1828A42F002025B
:104D3000828204E0828A4FF6FD731A4082827047B5
:104D400002460020B1F5007F00D100BF13880B4060
:104D50000BB1012000E00020704701F40072B2F5B1
:104D6000007F00D100BFCA430280704770B5024681
:104D7000002400230025002040F66A16B14200D12D
:104D800000BFC1F3421501F01F03012606FA03F329
:104D9000012D02D19689334006E0022D02D1168AF8
:104DA000334001E0968A33400C12012606FA04F4DF
:104DB0001688344013B10CB1012000E0002070BD12
:104DC00010B50022002340F66A14A14200D100BFB2
:104DD0000A1201249440A3B2DC43048010BD0000F9
:104DE000003801400044004000480040004C0040B2
:104DF00000500040F0B480EA0102D40F4200B2EB50
:104E0000410F02D20246084611464A0042D0C30D65
:104E1000DDB2C1F3C752AD1A202D35DAC1F3160148
:104E200041F4000204B15242C5F1200602FA06F133
:104E30002A411044B3EBD05F23D0C4B1012DA0EBC5
:104E4000C35009DCF0BC4FF0004202EAC352DBB2AF
:104E500000F5000000F033BA400000F1807000EB74
:104E6000C350A0F1807040EAD170490009E04908C0
:104E700041EAC071A0EBC35000F50000400800EB10
:104E8000C350F0BC00F012BA6142012202EB4101B2
:104E9000001BF6E7F0BC704781F00041AAE780F004
:104EA0000040A7E780EA010210B502F0004340008D
:104EB00022D04A001FD0010E01EB1261C0F3560050
:104EC000C2F3560240F4000042F40002A0FB0220AC
:104ED00000047F39140400D0401C50EA124001D471
:104EE0004000491EC2B20C0604EBD010401C400822
:104EF000802A02D003E0002010BD20F0010000292C
:104F000000DA0020184310BD30B480EA010202F03C
:104F1000004530F0004221F0004013D090B1C30DA5
:104F2000D40DC2F31601C0F31600E41A41F40001D7
:104F300040F400027D34914201D3641C00E049003A
:104F4000002C02DA30BC002070474FF40000002330
:104F5000914201D3891A034340084FEA4101F7D136
:104F600051B1914202D14FF0004105E002D24FF021
:104F7000010101E06FF0010103EBC450284430BC93
:104F800000F094B92DE9FE4F81EA030404F00044D7
:104F900021F0004100944FF0000B23F0004350EA51
:104FA00001045ED052EA03045BD0C3F30A54C1F398
:104FB0000A552C44A4F2F3340194A0FB0254C1F32B
:104FC000130141F48011C3F3130343F4801301FB75
:104FD000024400FB034E840A970A44EA815447EADC
:104FE0008357A4FB076802958D0A05FB07854FEAE6
:104FF000932C04FB0C542705029D4FEA065847EA00
:105000001637B5EB08056EEB070C870E920E47EAD4
:10501000811742EA8312A7FB0201B6EB0B0164EB96
:1050200000042B0D43EA0C335E1844EB1C50DA46A7
:105030005146E7FB0201C5F313044FEA0B3343EA81
:1050400014534FEA0432019C43EA0603A4F10C0412
:105050000294009CCDE900B400F06CF903B0BDE807
:10506000F08F00200146F9E72DE9F04D81EA0304B5
:1050700004F0004B21F0004514464FF0000A23F0E5
:10508000004150EA050220D054EA01021DD0C5F3C8
:105090000A570246C5F31303C1F31300C1F30A56BE
:1050A00040F4801543F48013A7EB0608101BD64686
:1050B00008F2FD3873EB050002D308F1010801E0A6
:1050C00092185B41B8F1000F03DA00200146BDE8F9
:1050D000F08D00204FF48011064684460EE0171B29
:1050E00073EB050705D3121B63EB050306434CEA7C
:1050F000010C49084FEA300092185B4150EA010761
:10510000EDD152EA030012D082EA040083EA0501DD
:10511000084305D0101BAB4106D20122002306E054
:1051200000224FF0004302E06FF0010253101AEB2F
:1051300006004CEB085110EB0A0041EB0B01BDE8F7
:10514000F04D00F0EAB8C10F80EAE0700844CA07E9
:105150009623002100F0B3B896230022114600F0F8
:10516000AEB80EB5C10F80EAE0700844CA0700214E
:1051700040F233438DE80E000A460B4600F0DAF8A1
:1051800003B000BD0EB540F2334102910021CDE9DC
:1051900000110A460B4600F0CDF803B000BD00F048
:1051A000004220F00040C10DC0F3160040F40000A2
:1051B0007F2901DA00207047962903DCC1F19601AE
:1051C000C84001E096398840002AF4D04042704738
:1051D00020F00040C10DC0F3160040F400007F290C
:1051E00001DA00207047962903DCC1F19601C8401E
:1051F0007047963988407047C1F30A5210B5C1F321
:10520000130140F2FF3341F480119A4201DA002089
:1052100010BD40F233439A42A2F2334203DC5242C1
:1052200000F034F810BD904010BD01F0004330B4E0
:1052300021F0004150EA010206D00A0DA2F5607289
:10524000C1F31301002A02DC30BC00207047440F78
:1052500044EAC104C100E01830BC00EBC25000F0C9
:1052600025B80000002801DBC0F10040002901DB67
:10527000C1F1004181427047002801DBC0F10040CC
:10528000002901DBC1F1004188427047202A04DB7C
:10529000203A21FA02F00021704721FA02F3D040AF
:1052A000C2F1200291400843194670470029A8BF67
:1052B0007047401C490008BF20F00100704710B43F
:1052C000B0FA80FC00FA0CF050EA010404BF10BCF4
:1052D000704749B1CCF1200421FA04F411FA0CF121
:1052E00018BF012121430843A3EB0C01CB1D4FEA5A
:1052F00000614FEA102042BF002010BC704700EB55
:10530000C35010440029A4BF10BC7047401C490082
:1053100008BF20F0010010BC704710B5002B08DA60
:10532000401C41F1000192185B411A4301D120F069
:10533000010010BD2DE9F04D92469B4611B1B1FA26
:1053400081F202E0B0FA80F22032904600F052F88A
:1053500004460F4640EA0A0041EA0B0153465A460A
:10536000084313D0114653EA010019D0C8F1400296
:105370005046FFF78BFF05460E46504659464246BB
:1053800000F038F8084305D0012004E020463946F3
:10539000BDE8F08D0020054346EAE0762C43374314
:1053A0000A986305E40AA0EB08000022FD0A44EA1B
:1053B00047540A3002D500200146E9E701051019DB
:1053C0006941DDE9084500196941BDE8F04DA4E7F0
:1053D000064C074D06E0E06840F0010394E8070042
:1053E00098471034AC42F6D3FAF7A6FE28550008C9
:1053F00048550008202A04DB203A00FA02F1002078
:1054000070479140C2F1200320FA03F31943904002
:10541000704700000FB4054B10B503A9044A029869
:1054200000F017F810BC5DF814FB0000C919000863
:10543000DC00002002E008C8121F08C1002AFAD1CF
:1054400070477047002001E001C1121F002AFBD104
:1054500070472DE9F84F9946924688460546002741
:1054600006E025280AD051464A4690476D1C7F1C0D
:1054700028780028F5D13846BDE8F88F002315F8C4
:10548000011F18462E2915D115F8011F04232A29BA
:105490000DD06FF02F022978A1F13004092C09D822
:1054A00000EB800002EB400008446D1CF3E758F865
:1054B000040B6D1C2A78002ADDD0632A07D0732ADA
:1054C0000FD0104651464A4690477F1C2AE018F8F4
:1054D000042B8DF8002000218DF801106E4601216B
:1054E00003E058F8046B4FF0FF315A074FF0000407
:1054F00001D409E0641C84420BDA8C42FADB325D91
:10550000002AF7D105E0641C8C42FCDB305D0028EA
:10551000F9D1274404E016F8010B51464A4690475A
:10552000641EF8D26D1CA3E7485500080000002057
:10553000E00000003454000828560008E000002075
:10554000C80600004454000800A24A0400000000FD
:105550000000000001020304060708090000000023
:10556000000000000000000000000000000000003B
:10557000000000000000000000000000000000002B
:10558000000000000000000000000000000000001B
:10559000000000000000000000000000000000000B
:1055A00000000000000000000000000000000000FB
:1055B00000000000000000000000000000000000EB
:1055C00000000000000000000000000000000000DB
:1055D00000000000000000000000000000000000CB
:1055E00001000000000000000000000000000000BA
:1055F00000000000000000000000000000000000AB
:105600000000E1E2E3E4E5E1E2E3E4E500000000BC
:105610000000000001020304010203040607080958
:0856200002040608000000006E
:0400000508000131BD
:00000001FF
